:020000040800F2
:1000000000000420E538010885910008939100085C
:10001000999100089F910008A59100080000000038
:10002000000000000000000000000000D1CE000829
:10003000353901080000000031D1000899D10008CD
:1000400035390108353901083539010835390108D4
:1000500035390108353901083539010835390108C4
:1000600035390108353901083539010835390108B4
:1000700035390108FD93000835390108119400084D
:100080003539010835390108353901083539010894
:10009000353901083539010835390108359400082A
:1000A0003539010835390108353901083539010874
:1000B0003539010835390108AD9100083539010895
:1000C0003539010835390108353901083539010854
:1000D00035390108C1930008D59300083539010866
:1000E00025940008353901083539010835390108EA
:1000F0003539010835390108353901083539010824
:10010000000000003539010835390108353901088A
:1001100000000000000000003539010835390108F1
:10012000E9930008353901083539010835390108E6
:1001300035390108353901083539010835390108E3
:1001400035390108353901083539010835390108D3
:1001500035390108353901083539010835390108C3
:1001600035390108353901080000000000000000A1
:10017000000000000000000000000000000000007F
:100180003539010835390108000000000000000081
:100190003539010835390108000000000000000071
:1001A000000000000000000000000000000000004F
:1001B00000000000000000000000000035390108C8
:0401C00035390108C4
:1001D00010B5054C237833B9044B13B10448AFF381
:1001E00000800123237010BD3002002000000000B9
:1001F0006046010808B5034B1BB103490348AFF340
:10020000008008BD000000003402002060460108A4
:100210007BB972B90029BEBF00204FF0004106E053
:1002200008BF00281CBF6FF000414FF0FF3000F006
:10023000BDB9ADF1080C6DE904CE002909DB002B36
:100240001ADB00F04DF8DDF804E0DDE9022304B02C
:100250007047404261EB4101002B1BDB00F040F88E
:10026000DDF804E0DDE9022304B0404261EB410126
:10027000524263EB43037047524263EB430300F087
:100280002FF8DDF804E0DDE9022304B0404261EB21
:1002900041017047524263EB430300F021F8DDF85F
:1002A00004E0DDE9022304B0524263EB43037047EC
:1002B00053B94AB9002908BF00281CBF4FF0FF31CD
:1002C0004FF0FF3000F072B9ADF1080C6DE904CECB
:1002D00000F006F8DDF804E0DDE9022304B0704721
:1002E0002DE9F047089E04468846002B4BD18A42F0
:1002F000154667D9B2FA82F24AB1C2F1200701FA73
:1003000002F320FA07F7954047EA030894404FEAC2
:10031000154E230CB8FBFEF71FFA85FC0EFB178861
:1003200043EA084307FB0CF1994209D9EB1807F19E
:10033000FF3080F01B81994240F21881023F2B442C
:100340005B1AA4B2B3FBFEF00EFB103344EA034485
:1003500000FB0CFCA44509D92C1900F1FF3380F0F7
:100360000781A44540F2048102382C4440EA07404A
:10037000A4EB0C0400271EB1D4400023C6E90043BF
:100380003946BDE8F0878B4209D9002E00F0EB809A
:100390000027C6E9000138463946BDE8F087B3FAC0
:1003A00083F7002F47D18B4202D3824200F2FA80BA
:1003B000841A61EB030301209846002EE0D0C6E9C1
:1003C0000048DDE702B9FFDEB2FA82F2002A40F00F
:1003D0008F80491B4FEA154E1FFA85F80127B1FBA4
:1003E000FEFC230C0EFB1C1143EA014308FB0CF13D
:1003F000994207D9EB180CF1FF3002D2994200F272
:10040000CD808446591AA3B2B1FBFEF00EFB101446
:1004100043EA044408FB00F8A04507D92C1900F171
:10042000FF3302D2A04500F2B6801846A4EB0804C0
:1004300040EA0C409FE7C7F1200CBB4022FA0CFEBB
:100440004EEA030E01FA07F420FA0CF521FA0CF338
:100450004FEA1E482543B3FBF8F92C0C08FB19336F
:100460001FFA8EFA44EA034309FB0AF49C4202FA9B
:1004700007F200FA07F10BD91EEB030309F1FF3075
:1004800080F087809C4240F28480A9F10209734485
:100490001B1BADB2B3FBF8F008FB103345EA034475
:1004A00000FB0AFAA24508D91EEB040400F1FF3351
:1004B0006BD2A24569D90238744440EA0940A0FBD6
:1004C0000289A4EB0A044C45C2464B4654D351D092
:1004D000002E69D0B1EB0A0564EB030404FA0CFCAE
:1004E000FD40FC404CEA0505C6E90054002747E7FB
:1004F000C2F1200320FA03F7954001FA02F021FA35
:1005000003F34FEA154E3843010CB3FBFEF71FFA15
:1005100085F80EFB173341EA034107FB08F38B42D2
:1005200004FA02F407D9691807F1FF3C2FD28B4275
:100530002DD9023F2944CB1A81B2B3FBFEF00EFB4A
:10054000103341EA034100FB08F38B4207D96918D5
:1005500000F1FF3C17D28B4215D902382944C91A41
:1005600040EA07473BE73746304609E70746E7E6F4
:100570001846FBE64145ABD2B8EB020A69EB0E0226
:1005800001381346A4E76046E9E7184695E7674651
:10059000D1E781467CE702382C4447E7ACF1020CF6
:1005A0002B442FE7384608E73746E9E6704700BF97
:1005B00010F8012B11F8013B012A28BF9A42F7D00D
:1005C000D01A7047034613F8012B002AFBD1181AE2
:1005D000013870470000000000000000000000002B
:1005E00001F0FF01102A2BDB10F0070F08D010F8E4
:1005F000013B013A8B422DD010F0070F42B3F6D1E8
:10060000F0B441EA012141EA014122F007047FF000
:1006100000070023F0E80256083C85EA010586EA57
:10062000010685FA47F5A3FA87F586FA47F6A5FA93
:1006300087F68EB9EED1F0BC01F0FF0102F007029F
:1006400032B110F8013B013A83EA010313B1F8D14A
:100650000020704701387047002D06BF354603382B
:10066000073815F0010F07D1013015F4807F02BF64
:10067000013015F4C03F0130F0BC0138704700BFB5
:1006800080B500AF0E4B1B680D4A43F40073136036
:100690000B4B1B680A4A43F480631360084B1B68CA
:1006A000074A43F480731360032000F01CF9002014
:1006B0000CF094FD08F048F90023184680BD00BFF7
:1006C000003C024080B400AF064B1B781A46064B34
:1006D0001B681344044A136000BFBD465DF8047BE9
:1006E000704700BF04000020F091022080B400AFEA
:1006F000034B1B681846BD465DF8047B704700BF7E
:10070000F091022080B584B000AF7860FFF7EEFF73
:10071000B8607B68FB60FB68B3F1FF3F05D0094B15
:100720001B781A46FB681344FB6000BFFFF7DEFF2F
:100730000246BB68D31AFA689A42F7D800BF10374E
:10074000BD4680BD0400002080B485B000AF786055
:100750007B6803F00703FB600C4BDB68BB60BA6887
:100760004FF6FF031340BB60FB681A02BB681343DC
:1007700043F0BF6343F40033BB60044ABB68D360FB
:1007800000BF1437BD465DF8047B704700ED00E004
:1007900080B400AF044BDB681B0A03F00703184664
:1007A000BD465DF8047B704700ED00E080B483B087
:1007B00000AF0346FB7197F90730002B0BDBFB7989
:1007C00003F01F02074997F907305B09012000FA7F
:1007D00002F241F8232000BF0C37BD465DF8047BD0
:1007E000704700BF00E100E080B483B000AF034673
:1007F000FB7197F90730002B10DBFB7903F01F0228
:10080000094997F907305B09012000FA02F2203309
:1008100041F82320BFF34F8FBFF36F8F00BF0C371A
:10082000BD465DF8047B704700E100E080B483B012
:1008300000AF03463960FB7197F90730002B0ADBE4
:100840003B68DAB20C4997F907301201D2B20B4477
:1008500083F800230AE03B68DAB20849FB7903F029
:100860000F03043B1201D2B20B441A7600BF0C37BF
:10087000BD465DF8047B704700E100E000ED00E05C
:1008800080B489B000AFF860B9607A60FB6803F0AB
:100890000703FB61FB69C3F10703042B28BF042393
:1008A000BB61FB690433062B02D9FB69033B00E003
:1008B00000237B614FF0FF32BB6902FA03F3DA4396
:1008C000BB681A407B699A404FF0FF317B6901FA9F
:1008D00003F3D9437B680B40134318462437BD46C6
:1008E0005DF8047B704780B582B000AF78607868AF
:1008F000FFF72AFF00BF0837BD4680BD80B586B030
:1009000000AF0346B9607A60FB7300237B61FFF799
:100910003FFF78617A68B9687869FFF7B1FF0246EE
:1009200097F90F3011461846FFF780FF00BF1837C0
:10093000BD4680BD80B582B000AF0346FB7197F91C
:1009400007301846FFF732FF00BF0837BD4680BDAD
:1009500080B582B000AF0346FB7197F907301846A7
:10096000FFF742FF00BF0837BD4680BD80B586B0A7
:1009700000AF786000237B61FFF7B8FE38617B68C9
:10098000002B01D1012399E07B68002283F83420F9
:100990007B68022283F835207B681B681A687B68B5
:1009A0001B6822F001021A600FE0FFF79FFE02466B
:1009B0003B69D31A052B08D97B6820225A657B68CE
:1009C000032283F83520032378E07B681B681B68CB
:1009D00003F00103002BE8D17B681B681B687B6177
:1009E0007A69384B13407B617B685A687B689B68E7
:1009F0001A437B68DB681A437B681B691A437B6870
:100A00005B691A437B689B691A437B68DB691A43FD
:100A10007B681B6A13437A6913437B617B685B6A5B
:100A2000042B07D17B68DA6A7B681B6B13437A69F6
:100A300013437B617B681B687A691A607B681B685B
:100A40005B697B617B6923F007037B617B685B6A81
:100A50007A6913437B617B685B6A042B17D17B68DF
:100A60009B6A7A6913437B617B68DB6A002B0ED03B
:100A7000786800F0D7FD0346002B08D07B68402241
:100A80005A657B68012283F83520012316E07B68D4
:100A90001B687A695A61786800F08EFD0346FB6036
:100AA0007B68DB6D3F229A40FB689A607B6800227E
:100AB0005A657B68012283F83520002318461837D1
:100AC000BD4680BD3F8010F080B584B000AF786037
:100AD0007B68002B01D1012350E07B6893F835300F
:100AE000DBB2022B01D1022348E07B681B681A6845
:100AF0007B681B6822F001021A607B681B68002279
:100B00001A607B681B6800225A607B681B680022A1
:100B10009A607B681B680022DA607B681B68002291
:100B20001A617B681B6821225A61786800F044FDD5
:100B30000346FB607B680022DA637B6800221A644C
:100B40007B6800225A647B6800229A647B680022DA
:100B5000DA647B6800221A657B68DB6D3F229A406D
:100B6000FB689A607B6800225A657B68002283F8E4
:100B700035207B68002283F8342000231846103784
:100B8000BD4680BD80B586B000AFF860B9607A60C0
:100B90003B600023FB75FB689B6D3B61FB6893F832
:100BA0003430012B01D1022334E0FB68012283F8A9
:100BB0003420FB6893F83530DBB2012B23D1FB687E
:100BC000022283F83520FB6800225A653B687A6868
:100BD000B968F86800F0C2FCFB68DB6D3F229A4000
:100BE0003B699A60FB681B681A68FB681B6842F0E7
:100BF00016021A60FB681B681A68FB681B6842F0E3
:100C000001021A6005E0FB68002283F83420022309
:100C1000FB75FB7D18461837BD4680BD80B584B096
:100C200000AF78607B689B6DFB60FFF75FFDB8608D
:100C30007B6893F83530DBB2022B08D07B688022CA
:100C40005A657B68002283F83420012352E07B68D8
:100C50001B681A687B681B6822F016021A607B68A2
:100C60001B685A697B681B6822F080025A617B68A6
:100C70001B6C002B03D17B689B6C002B07D07B681F
:100C80001B681A687B681B6822F008021A607B6880
:100C90001B681A687B681B6822F001021A6013E067
:100CA000FFF724FD0246BB68D31A052B0CD97B68DD
:100CB00020225A657B68002283F834207B68032257
:100CC00083F83520032315E07B681B681B6803F05D
:100CD0000103002BE4D17B68DB6D3F229A40FB6867
:100CE0009A607B68002283F834207B68012283F8B5
:100CF0003520002318461037BD4680BD80B483B030
:100D000000AF78607B6893F83530DBB2022B04D0FB
:100D10007B6880225A6501230CE07B68052283F8FA
:100D200035207B681B681A687B681B6822F001020B
:100D30001A60002318460C37BD465DF8047B7047E7
:100D400080B586B000AF7860844B7B617B689B6D1B
:100D50003B613B691B68FB607B68DB6D10229A403E
:100D6000FB681340002B4ED07B681B681B6803F0A8
:100D70000803002B3CD07B68DB6D10229A403B6956
:100D80009A607B681B681B6803F48023002B18D0D3
:100D90007B681B681B6803F40023002B08D17B6869
:100DA0001B6C002B24D07B681B6C786898471FE075
:100DB0007B689B6C002B1BD07B689B6C786898478A
:100DC00016E07B681B681B6803F48073002B07D157
:100DD0007B681B681A687B681B6822F008021A602F
:100DE0007B681B6C002B03D07B681B6C7868984772
:100DF0007B695B68002B06D1594B4FF080429A61AA
:100E00007B6901225A747B68DB6D20229A40FB6863
:100E10001340002B00F09E807B681B681B6803F06A
:100E20001003002B00F082807B68DB6D20229A404B
:100E30003B699A607B6893F83530DBB2052B36D17D
:100E40007B681B681A687B681B6822F016021A60B0
:100E50007B681B685A697B681B6822F080025A61B4
:100E60007B681B6C002B03D17B689B6C002B07D02D
:100E70007B681B681A687B681B6822F008021A608E
:100E80007B68DB6D3F229A403B699A607B68002259
:100E900083F834207B68012283F835207B681B6D42
:100EA000002B56D07B681B6D7868984751E07B68B3
:100EB0001B681B6803F48023002B18D07B681B6819
:100EC0001B6803F40023002B08D17B685B6C002BAC
:100ED0002CD07B685B6C7868984727E07B68DB6B7D
:100EE000002B23D07B68DB6B786898471EE07B681B
:100EF0001B681B6803F48073002B0FD17B681B6891
:100F00001A687B681B6822F010021A607B68002256
:100F100083F834207B68012283F835207B68DB6B03
:100F2000002B03D07B68DB6B786898477B695B7C20
:100F3000012B06D17B6900225A747B6900221A7446
:100F400001E007F09DFC074B1B680133054A136065
:100F500000E000BF1837BD4680BD00BFF8960220F4
:100F600000080240F80D032080B586B000AF78601D
:100F70007B689B6D7B617B691B683B617B68DB6D7C
:100F800008229A403B691340002B1AD07B681B68EB
:100F90001B6803F00403002B13D07B681B681A68DE
:100FA0007B681B6822F004021A607B68DB6D0822F4
:100FB0009A407B699A607B685B6D43F001027B68B5
:100FC0005A657B68DB6D20229A403B691340002BF9
:100FD00000F012817B681B681B6803F01003002B74
:100FE00000F083807B68DB6D20229A407B699A60E9
:100FF0007B6893F83530DBB2052B37D17B681B68F3
:101000001A687B681B6822F016021A607B681B68EE
:101010005A697B681B6822F080025A617B681B6CEE
:10102000002B03D17B689B6C002B07D07B681B686F
:101030001A687B681B6822F008021A607B68DB6D07
:101040003F229A407B699A607B68002283F83420B3
:101050007B68012283F835207B681B6D002B00F034
:10106000CA807B681B6D78689847C4E07B681B6802
:101070001B6803F48023002B18D07B681B681B6857
:1010800003F40023002B08D17B685B6C002B2CD071
:101090007B685B6C7868984727E07B68DB6B002B8C
:1010A00023D07B68DB6B786898471EE07B681B6801
:1010B0001B6803F48073002B0FD17B681B681A68D0
:1010C0007B681B6822F010021A607B68002283F89C
:1010D00034207B68012283F835207B68DB6B002B92
:1010E00003D07B68DB6B78689847454B1B78012BF6
:1010F0001BD1434B00221A70424B01221A70424B03
:1011000001221A70414B01229A614149414805F080
:10111000D3F9414B414A3E49072005F013FA3F48B5
:1011200006F0AAF806F054FB66E0384B4FF4004294
:101130009A61354B01221A7006F01EF906F050FC38
:10114000374B00229A75364B0022DA75354BFB601F
:10115000354B1B881B0A9BB21946FB685A1CFA6068
:101160001B784B40DBB2BB602F4B1B881B021AB2B3
:101170002E49BB6831F813301BB253401BB29AB2F0
:10118000294B1A80284B1B881B0A9BB21946FB6807
:101190005A1CFA601B784B40DBB2BB60224B1B88A9
:1011A0001B021AB22149BB6831F813301BB25340FD
:1011B0001BB29AB21C4B1A801D4A1B4B1B88194646
:1011C000104608F0E9F903461A461A4B1A801A4BE2
:1011D000184A12881A80194B02221A70184B0022E2
:1011E0001A704A210E4807F0C1FA164B1B680133EA
:1011F000144A136000E000BF1837BD4680BD00BF31
:10120000E0020020DE020020DD020020000002409B
:10121000680200207502002000920220F491022052
:10122000D8920220EE920220D4920220B84D0108FA
:10123000F09202206894022020930220E102002014
:1012400065020020BC0A032080B586B000AF78603C
:101250000023BB60924B1B68924AA2FB03239B0AAC
:101260007B617B689B6D3B613B691B68FB607B68B6
:10127000DB6D08229A40FB681340002B1AD07B6874
:101280001B681B6803F00403002B13D07B681B68EA
:101290001A687B681B6822F004021A607B68DB6DA9
:1012A00008229A403B699A607B685B6D43F00102BB
:1012B0007B685A657B68DB6D01229A40FB681340AE
:1012C000002B12D07B681B685B6903F08003002B46
:1012D0000BD07B68DB6D01229A403B699A607B688A
:1012E0005B6D43F002027B685A657B68DB6D04220C
:1012F0009A40FB681340002B12D07B681B681B6868
:1013000003F00203002B0BD07B68DB6D04229A40B4
:101310003B699A607B685B6D43F004027B685A65A9
:101320007B68DB6D10229A40FB681340002B43D092
:101330007B681B681B6803F00803002B3CD07B68AC
:10134000DB6D10229A403B699A607B681B681B68C2
:1013500003F48023002B18D07B681B681B6803F400
:101360000023002B08D17B681B6C002B24D07B68EA
:101370001B6C786898471FE07B689B6C002B1BD028
:101380007B689B6C7868984716E07B681B681B68D5
:1013900003F48073002B07D17B681B681A687B6895
:1013A0001B6822F008021A607B681B6C002B03D0BC
:1013B0007B681B6C786898477B68DB6D20229A40BD
:1013C000FB681340002B00F08E807B681B681B6855
:1013D00003F01003002B00F086807B68DB6D202279
:1013E0009A403B699A607B6893F83530DBB2052BF5
:1013F00036D17B681B681A687B681B6822F016026E
:101400001A607B681B685A697B681B6822F080023F
:101410005A617B681B6C002B03D17B689B6C002B93
:1014200007D07B681B681A687B681B6822F008027B
:101430001A607B68DB6D3F229A403B699A607B684B
:10144000002283F834207B68012283F835207B68F2
:101450001B6D002B7DD07B681B6D7868984778E00A
:101460007B681B681B6803F48023002B1CD07B68FF
:101470001B681B6803F40023002B08D17B685B6C9E
:10148000002B30D07B685B6C786898472BE07B68DA
:10149000DB6B002B27D07B68DB6B7868984722E0FA
:1014A00010000020B5814E1B7B681B681B6803F48D
:1014B0008073002B0FD17B681B681A687B681B68E0
:1014C00022F010021A607B68002283F834207B68C7
:1014D000012283F835207B68DB6B002B03D07B680F
:1014E000DB6B786898477B685B6D002B32D07B683C
:1014F0005B6D03F00103002B22D07B68052283F88B
:1015000035207B681B681A687B681B6822F0010223
:101510001A60BB680133BB607A699A4207D37B6863
:101520001B681B6803F00103002BF2D100E000BF31
:101530007B68002283F834207B68012283F8352001
:101540007B68DB6C002B05D07B68DB6C7868984788
:1015500000E000BF1837BD4680BD00BF80B485B035
:1015600000AFF860B9607A603B60FB681B681A687E
:10157000FB681B6822F480221A60FB681B683A68CB
:101580005A60FB689B68402B08D1FB681B687A682F
:101590009A60FB681B68BA68DA6007E0FB681B6842
:1015A000BA689A60FB681B687A68DA6000BF143713
:1015B000BD465DF8047B704780B485B000AF7860AD
:1015C0007B681B68DBB2103B144AA2FB03231B0998
:1015D000FB60134AFB6813441B781A467B68DA6584
:1015E000FB68032B09D97B681B6823F47F7323F006
:1015F00003031A1D7B689A6507E07B681B6823F468
:101600007F7323F003037A6893657B689B6D1846AC
:101610001437BD465DF8047B704700BFABAAAAAA89
:101620007846010880B485B000AF78600023FB7372
:101630007B689B6ABB607B689B69002B1FD1BB6882
:10164000032B55D801A252F823F000BF5D16000805
:101650006F1600085D160008F11600087B68DB6A4B
:1016600003F08073002B45D00123FB7342E07B68BD
:10167000DB6AB3F1C07F3FD10123FB733CE07B68A1
:101680009B69B3F5005F21D1BB68032B36D801A25B
:1016900052F823F0A5160008AB160008A51600089E
:1016A000BD1600080123FB732FE07B68DB6A03F0A3
:1016B0008073002B24D00123FB7321E07B68DB6A5D
:1016C000B3F1C07F1ED10123FB731BE0BB68022B6B
:1016D00002D9032B03D018E00123FB7315E07B68CC
:1016E000DB6A03F08073002B0ED00123FB730BE049
:1016F00000BF0AE000BF08E000BF06E000BF04E052
:1017000000BF02E000BF00E000BFFB7B18461437BB
:10171000BD465DF8047B704780B489B000AF786047
:10172000396000237B6100233B610023BB61002300
:10173000FB614DE10122FB6902FA03F37B613B6827
:101740001B687A6913403B613A697B699A4240F0B1
:101750003C813B685B68012B0BD03B685B68022BCC
:1017600007D03B685B68112B03D03B685B68122B8A
:1017700030D17B689B68BB61FB695B00032202FA86
:1017800003F3DB43BA691340BB613B68DA68FB696A
:101790005B0002FA03F3BA691343BB617B68BA6961
:1017A0009A607B685B68BB610122FB6902FA03F304
:1017B000DB43BA691340BB613B685B681B0903F0FC
:1017C0000102FB6902FA03F3BA691343BB617B6848
:1017D000BA695A607B68DB68BB61FB695B00032206
:1017E00002FA03F3DB43BA691340BB613B689A68B2
:1017F000FB695B0002FA03F3BA691343BB617B68C0
:10180000BA69DA603B685B68022B03D03B685B68AF
:10181000122B23D1FB69DA087B68083253F8223097
:10182000BB61FB6903F007039B000F2202FA03F37D
:10183000DB43BA691340BB613B681A69FB6903F07B
:1018400007039B0002FA03F3BA691343BB61FB6908
:10185000DA087B680832B96943F822107B681B6894
:10186000BB61FB695B00032202FA03F3DB43BA6945
:101870001340BB613B685B6803F00302FB695B00DC
:1018800002FA03F3BA691343BB617B68BA691A6051
:101890003B685B6803F08053002B00F096800023C8
:1018A000FB60504B5B6C4F4A43F4804353644D4B99
:1018B0005B6C03F48043FB60FB684B4AFB699B084D
:1018C000023352F82330BB61FB6903F003039B0032
:1018D0000F2202FA03F3DB43BA691340BB617B6852
:1018E000424A93420DD07B68414A934207D07B68BD
:1018F000404A934201D1022304E0072302E001237E
:1019000000E00023FA6902F0030292009340BA69F2
:101910001343BB613449FB699B080233BA6941F840
:101920002320354B1B68BB613B69DB43BA6913401D
:10193000BB613B685B6803F48033002B03D0BA695A
:101940003B691343BB612C4ABB6913602A4B5B683C
:10195000BB613B69DB43BA691340BB613B685B68B1
:1019600003F40033002B03D0BA693B691343BB6116
:10197000214ABB695360204B9B68BB613B69DB43D9
:10198000BA691340BB613B685B6803F48013002BAA
:1019900003D0BA693B691343BB61174ABB699360C3
:1019A000154BDB68BB613B69DB43BA691340BB6124
:1019B0003B685B6803F40013002B03D0BA693B69F2
:1019C0001343BB610C4ABB69D360FB690133FB6104
:1019D000FB690F2B7FF6AEAE00BF2437BD465DF826
:1019E000047B70470038024000380140000002408C
:1019F0000004024000080240003C014080B487B06F
:101A000000AF7860396000233B610023FB60002356
:101A1000BB6000237B61AFE001227B6902FA03F324
:101A20003B613A683B691340FB60FA683B699A4244
:101A300040F09F80554A7B699B08023352F823305F
:101A4000BB607B6903F003039B000F2202FA03F3E0
:101A5000BA681340BB607B684D4A93420DD07B68E7
:101A60004C4A934207D07B684B4A934201D10223F0
:101A700004E0072302E0012300E000237A6902F07A
:101A8000030292009340BA689A4232D1434B1A68DB
:101A9000FB68DB43414913400B60404B5A68FB68CD
:101AA000DB433E4913404B603C4B9A68FB68DB4389
:101AB0003A4913408B60394BDA68FB68DB4337499E
:101AC0001340CB607B6903F003039B000F2202FAF3
:101AD00003F3BB602D4A7B699B08023352F8231045
:101AE000BB68DA4329487B699B080A40023340F807
:101AF00023207B681A687B695B00032101FA03F3EA
:101B0000DB431A407B681A607B69DA087B6808321D
:101B100053F822107B6903F007039B000F2202FA9F
:101B200003F3DB437A69D20819407B68083243F833
:101B300022107B68DA687B695B00032101FA03F3FA
:101B4000DB431A407B68DA607B685A6801217B6955
:101B500001FA03F3DB431A407B685A607B689A689A
:101B60007B695B00032101FA03F3DB431A407B68C6
:101B70009A607B6901337B617B690F2B7FF64CAFE9
:101B800000BF1C37BD465DF8047B7047003801403C
:101B9000000002400004024000080240003C0140F6
:101BA00080B582B000AF0346FB80084B5A69FB88C2
:101BB0001340002B06D0054AFB885361FB8818466A
:101BC00011F0BAFE00BF0837BD4680BD003C0140A1
:101BD00080B584B000AF78607B68002B01D1012311
:101BE0001FE17B6893F83D30DBB2002B06D17B68A8
:101BF000002283F83C20786806F0CEFE7B68242221
:101C000083F83D207B681B681A687B681B6822F09C
:101C100001021A607B681B681A687B681B6842F4C3
:101C200000421A607B681B681A687B681B6822F494
:101C300000421A6001F046F9F8607B685B687B4AF5
:101C4000934207D8FB687A4A934294BF012300234A
:101C5000DBB206E0FB68774A934294BF012300237E
:101C6000DBB2002B01D00123DBE0FB68724AA2FB50
:101C700003239B0CBB607B681B685B6823F03F0100
:101C80007B681B68BA680A435A607B681B681B6ADA
:101C900023F03F017B685B68644A934202D8BB68CB
:101CA000013309E0BB684FF4967202FB03F3634A09
:101CB000A2FB03239B0901337A6812680B4313626A
:101CC0007B681B68DB6923F44F4222F0FF027B68CC
:101CD0005B6856498B420DD8FB68591E7B685B6870
:101CE0005B00B1FBF3F30133C3F30B03042B38BFE9
:101CF00004234FE07B689B68002B11D1FB68581EC2
:101D00007B6859680B465B000B44B0FBF3F301336F
:101D1000C3F30B03002B0CBF01230023DBB212E043
:101D2000FB68581E7B6859680B469B000B44990062
:101D30000B44B0FBF3F30133C3F30B03002B0CBFD5
:101D400001230023DBB2002B01D0012322E07B68BA
:101D50009B68002B0ED1FB68581E7B6859680B46A8
:101D60005B000B44B0FBF3F30133C3F30B0343F409
:101D700000430FE0FB68581E7B6859680B469B00C8
:101D80000B4499000B44B0FBF3F30133C3F30B0393
:101D900043F44043796809681343CB617B681B684F
:101DA0001B6823F0C0017B68DA697B681B6A1A43F1
:101DB0007B681B680A431A607B681B689B6823F476
:101DC000034323F0FF037A6811697A68D2681143EC
:101DD0007A6812680B4393607B681B68DB6823F0AA
:101DE000FF017B685A697B689B691A437B681B68A3
:101DF0000A43DA607B681B681A687B681B6842F0DC
:101E000001021A607B6800221A647B68202283F832
:101E10003D207B6800221A637B68002283F83E2005
:101E2000002318461037BD4680BD00BFA0860100C4
:101E30007F841E00FF083D0083DE1B43D34D6210EC
:101E400080B588B002AFF860084611461A460346CE
:101E50007B810B463B811346FB80FEF747FC786194
:101E6000FB6893F83D30DBB2202B40F0D9807B69D2
:101E70000093192301226D49F86800F07BFC0346AA
:101E8000002B01D00223CCE0FB6893F83C30012BFF
:101E900001D10223C5E0FB68012283F83C20FB68E6
:101EA0001B681B6803F00103012B07D0FB681B684C
:101EB0001A68FB681B6842F001021A60FB681B6825
:101EC0001A68FB681B6822F400621A60FB68212212
:101ED00083F83D20FB68402283F83E20FB68002207
:101EE0001A64FB683A6A5A62FB68BA8C5A85FB68C6
:101EF0005B8D9AB2FB681A85FB684D4ADA62F888F6
:101F00003A8979897B690193BB6A00930346F86833
:101F100000F0B6FA0346002B52D0012381E07A6923
:101F2000B96AF86800F0FCFC0346002B0DD0FB6892
:101F30001B6C042B07D1FB681B681A68FB681B68C5
:101F400042F400721A6001236BE0FB685B6A1A7846
:101F5000FB681B681A61FB685B6A5A1CFB685A6263
:101F6000FB681B8D013B9AB2FB681A85FB685B8D91
:101F70009BB2013B9AB2FB685A85FB681B685B69A0
:101F800003F00403042B1BD1FB681B8D002B17D01F
:101F9000FB685B6A1A78FB681B681A61FB685B6AFE
:101FA0005A1CFB685A62FB681B8D013B9AB2FB68A6
:101FB0001A85FB685B8D9BB2013B9AB2FB685A8520
:101FC000FB681B8D002BAAD17A69B96AF86800F00A
:101FD000E8FC0346002B0DD0FB681B6C042B07D1DB
:101FE000FB681B681A68FB681B6842F400721A6081
:101FF000012316E0FB681B681A68FB681B6842F443
:1020000000721A60FB68202283F83D20FB680022E2
:1020100083F83E20FB68002283F83C20002300E088
:10202000022318461837BD4680BD00BF02001000CD
:102030000000FFFF80B58CB002AFF8600846114683
:102040001A4603467B810B463B811346FB80FEF715
:102050004DFB7862FB6893F83D30DBB2202B40F0FB
:1020600008827B6A0093192301227B49F86800F0FB
:1020700081FB0346002B01D00223FBE1FB6893F8B0
:102080003C30012B01D10223F4E1FB68012283F8EB
:102090003C20FB681B681B6803F00103012B07D081
:1020A000FB681B681A68FB681B6842F001021A6033
:1020B000FB681B681A68FB681B6822F400621A60E0
:1020C000FB68222283F83D20FB68402283F83E20F3
:1020D000FB6800221A64FB683A6B5A62FB68BA8E8E
:1020E0005A85FB685B8D9AB2FB681A85FB685B4A70
:1020F000DA62F8883A8979897B6A0193BB6B00932D
:102100000346F86800F050FA0346002B01D0012383
:10211000B0E1FB681B8D002B13D100233B62FB68F1
:102120001B685B693B62FB681B689B693B623B6A9F
:10213000FB681B681A68FB681B6842F400721A602F
:1021400084E1FB681B8D012B1BD1FB681B681A689F
:10215000FB681B6822F480621A600023FB61FB6845
:102160001B685B69FB61FB681B689B69FB61FB6922
:10217000FB681B681A68FB681B6842F400721A60EF
:1021800064E1FB681B8D022B1BD1FB681B681A687E
:10219000FB681B6822F480621A60FB681B681A687F
:1021A000FB681B6842F400621A600023BB61FB6895
:1021B0001B685B69BB61FB681B689B69BB61BB6992
:1021C00044E100237B61FB681B685B697B61FB6802
:1021D0001B689B697B617B6938E1FB681B8D032B66
:1021E00000F2F180FB681B8D012B23D17A6AB96B59
:1021F000F86800F017FC0346002B01D0012339E1F9
:10220000FB681B681A69FB685B6AD2B21A70FB68CC
:102210005B6A5A1CFB685A62FB681B8D013B9AB2D1
:10222000FB681A85FB685B8D9BB2013B9AB2FB6829
:102230005A850BE1FB681B8D022B4ED17B6A009304
:10224000BB6B00220649F86800F094FA0346002BA5
:1022500008D001230EE100BF020010000000FFFFC4
:1022600004000100FB681B681A68FB681B6842F4E5
:1022700000721A60FB681B681A69FB685B6AD2B25D
:102280001A70FB685B6A5A1CFB685A62FB681B8DFC
:10229000013B9AB2FB681A85FB685B8D9BB2013BE0
:1022A0009AB2FB685A85FB681B681A69FB685B6A0F
:1022B000D2B21A70FB685B6A5A1CFB685A62FB68F0
:1022C0001B8D013B9AB2FB681A85FB685B8D9BB244
:1022D000013B9AB2FB685A85B8E07B6A0093BB6BFE
:1022E00000226649F86800F045FA0346002B01D049
:1022F0000123BFE0FB681B681A68FB681B6822F4B7
:1023000080621A60FB681B681A69FB685B6AD2B25C
:102310001A70FB685B6A5A1CFB685A62FB681B8D6B
:10232000013B9AB2FB681A85FB685B8D9BB2013B4F
:102330009AB2FB685A857B6A0093BB6B00224F49B7
:10234000F86800F017FA0346002B01D0012391E052
:10235000FB681B681A68FB681B6842F400721A600D
:10236000FB681B681A69FB685B6AD2B21A70FB686B
:102370005B6A5A1CFB685A62FB681B8D013B9AB270
:10238000FB681A85FB685B8D9BB2013B9AB2FB68C8
:102390005A85FB681B681A69FB685B6AD2B21A70BF
:1023A000FB685B6A5A1CFB685A62FB681B8D013B29
:1023B0009AB2FB681A85FB685B8D9BB2013B9AB2AF
:1023C000FB685A8542E07A6AB96BF86800F02AFB2C
:1023D0000346002B01D001234CE0FB681B681A69FF
:1023E000FB685B6AD2B21A70FB685B6A5A1CFB68B6
:1023F0005A62FB681B8D013B9AB2FB681A85FB6829
:102400005B8D9BB2013B9AB2FB685A85FB681B68E7
:102410005B6903F00403042B18D1FB681B681A697D
:10242000FB685B6AD2B21A70FB685B6A5A1CFB6875
:102430005A62FB681B8D013B9AB2FB681A85FB68E8
:102440005B8D9BB2013B9AB2FB685A85FB681B8D82
:10245000002B7FF4C2AEFB68202283F83D20FB688E
:10246000002283F83E20FB68002283F83C200023F2
:1024700000E0022318462837BD4680BD0400010055
:1024800080B588B002AFF860084611461A46034688
:102490007B810B463B811346FB80FB681B681A68F7
:1024A000FB681B6842F480721A607B6A00933B6A87
:1024B00000224FF00111F86800F05CF90346002B90
:1024C0000CD0FB681B681B6803F48073002B03D0DF
:1024D000FB684FF400721A6403235FE07B89DBB270
:1024E0001A46FB681B6802F0FE021A617B6A3A6AB0
:1024F0002C49F86800F095F90346002B01D0012320
:102500004CE000237B61FB681B685B697B61FB68B7
:102510001B689B697B617B697A6A396AF86800F09D
:10252000FFF90346002B0DD0FB681B6C042B07D171
:10253000FB681B681A68FB681B6842F400721A602B
:1025400001232BE0FB88012B05D13B89DAB2FB6824
:102550001B681A6121E03B891B0A9BB2DAB2FB6857
:102560001B681A617A6A396AF86800F0D9F903467B
:10257000002B0DD0FB681B6C042B07D1FB681B687C
:102580001A68FB681B6842F400721A60012305E0B8
:102590003B89DAB2FB681B681A61002318461837BA
:1025A000BD4680BD0200010080B588B002AFF86072
:1025B000084611461A4603467B810B463B8113466B
:1025C000FB80FB681B681A68FB681B6842F480622A
:1025D0001A60FB681B681A68FB681B6842F480720B
:1025E0001A607B6A00933B6A00224FF00111F86881
:1025F00000F0C0F80346002B0CD0FB681B681B687A
:1026000003F48073002B03D0FB684FF400721A644C
:102610000323A9E07B89DBB21A46FB681B6802F042
:10262000FE021A617B6A3A6A5149F86800F0F9F8CB
:102630000346002B01D0012396E000237B61FB6859
:102640001B685B697B61FB681B689B697B617B69BD
:102650007A6A396AF86800F063F90346002B0DD0F6
:10266000FB681B6C042B07D1FB681B681A68FB68AE
:102670001B6842F400721A60012375E0FB88012B8D
:1026800005D13B89DAB2FB681B681A6121E03B89FE
:102690001B0A9BB2DAB2FB681B681A617A6A396A54
:1026A000F86800F03DF90346002B0DD0FB681B6C69
:1026B000042B07D1FB681B681A68FB681B6842F48F
:1026C00000721A6001234FE03B89DAB2FB681B6895
:1026D0001A617A6A396AF86800F022F90346002B19
:1026E0000DD0FB681B6C042B07D1FB681B681A68B4
:1026F000FB681B6842F400721A60012334E0FB6837
:102700001B681A68FB681B6842F480721A607B6A57
:1027100000933B6A00224FF00111F86800F02AF89C
:102720000346002B0CD0FB681B681B6803F4807306
:10273000002B03D0FB684FF400721A64032313E0EC
:102740007B89DBB243F00103DAB2FB681B681A61D4
:102750007B6A3A6A0649F86800F063F80346002B82
:1027600001D0012300E0002318461837BD4680BD84
:102770000200010080B584B000AFF860B9603B6032
:102780001346FB7125E03B68B3F1FF3F21D0FDF715
:10279000ADFF0246BB69D31A3A689A4202D33B683E
:1027A000002B16D1FB6800221A63FB68202283F8F5
:1027B0003D20FB68002283F83E20FB681B6C43F041
:1027C0002002FB681A64FB68002283F83C20012386
:1027D00023E0BB681B0CDBB2012B0DD1FB681B682F
:1027E0005B69DA43BB6813409BB2002B0CBF01232B
:1027F0000023DBB21A460CE0FB681B689B69DA43D6
:10280000BB6813409BB2002B0CBF01230023DBB23B
:102810001A46FB799A42B6D0002318461037BD46B7
:1028200080BD80B584B000AFF860B9607A603B606D
:1028300051E0FB681B685B6903F48063B3F5806F4C
:1028400023D1FB681B681A68FB681B6842F400729E
:102850001A60FB681B686FF480625A61FB68002293
:102860001A63FB68202283F83D20FB68002283F86E
:102870003E20FB681B6C43F00402FB681A64FB6893
:10288000002283F83C20012346E07B68B3F1FF3F40
:1028900021D0FDF72BFF02463B68D31A7A689A4293
:1028A00002D37B68002B16D1FB6800221A63FB68F9
:1028B000202283F83D20FB68002283F83E20FB683D
:1028C0001B6C43F02002FB681A64FB68002283F84B
:1028D0003C20012320E0BB681B0CDBB2012B0CD198
:1028E000FB681B685B69DA43BB6813409BB2002B33
:1028F00014BF01230023DBB20BE0FB681B689B695C
:10290000DA43BB6813409BB2002B14BF01230023A2
:10291000DBB2002B8DD1002318461037BD4680BD99
:1029200080B584B000AFF860B9607A602DE0F868D7
:1029300000F0CEF80346002B01D001232DE0BB6848
:10294000B3F1FF3F21D0FDF7D1FE02467B68D31AD9
:10295000BA689A4202D3BB68002B16D1FB680022EA
:102960001A63FB68202283F83D20FB68002283F86D
:102970003E20FB681B6C43F02002FB681A64FB6876
:10298000002283F83C20012307E0FB681B685B6999
:1029900003F08003802BCAD1002318461037BD46B0
:1029A00080BD80B584B000AFF860B9607A602DE07A
:1029B000F86800F08DF80346002B01D001232DE0CC
:1029C000BB68B3F1FF3F21D0FDF790FE02467B6864
:1029D000D31ABA689A4202D3BB68002B16D1FB689F
:1029E00000221A63FB68202283F83D20FB68002246
:1029F00083F83E20FB681B6C43F02002FB681A64DE
:102A0000FB68002283F83C20012307E0FB681B6879
:102A10005B6903F00403042BCAD100231846103766
:102A2000BD4680BD80B584B000AFF860B9607A6003
:102A300042E0FB681B685B6903F01003102B19D19F
:102A4000FB681B686FF010025A61FB6800221A6372
:102A5000FB68202283F83D20FB68002283F83E209B
:102A6000FB681A6CFB681A64FB68002283F83C2040
:102A7000012329E0FDF73AFE02467B68D31ABA68C3
:102A80009A4202D3BB68002B16D1FB6800221A635E
:102A9000FB68202283F83D20FB68002283F83E205B
:102AA000FB681B6C43F02002FB681A64FB68002281
:102AB00083F83C20012307E0FB681B685B6903F097
:102AC0004003402BB5D1002318461037BD4680BDCA
:102AD00080B483B000AF78607B681B685B6903F4E7
:102AE0008063B3F5806F1BD17B681B686FF48062D5
:102AF0005A617B6800221A637B68202283F83D209C
:102B00007B68002283F83E207B681B6C43F0040244
:102B10007B681A647B68002283F83C20012300E074
:102B2000002318460C37BD465DF8047B7047000053
:102B300080B584B000AF786039607B68002B01D12C
:102B40000123CCE0684B1B6803F00F033A689A42FC
:102B50000CD9654B3A68D2B21A70634B1B6803F00C
:102B60000F033A689A4201D00123B8E07B681B68E2
:102B700003F00203002B20D07B681B6803F00403E2
:102B8000002B05D0594B9B68584A43F4E05393609F
:102B90007B681B6803F00803002B05D0534B9B6830
:102BA000524A43F460439360504B9B6823F0F00219
:102BB0007B689B684D4913438B607B681B6803F0FF
:102BC0000103002B44D07B685B68012B07D1474B86
:102BD0001B6803F40033002B19D101237FE07B68CD
:102BE0005B68022B03D07B685B68032B07D13F4BEC
:102BF0001B6803F00073002B09D101236FE03B4BEE
:102C00001B6803F00203002B01D1012367E0374B5F
:102C10009B6823F003027B685B68344913438B6035
:102C2000FDF764FDF8600AE0FDF760FD0246FB6811
:102C3000D31A41F28832934201D903234FE02B4B40
:102C40009B6803F00C027B685B689B009A42EBD1A7
:102C5000254B1B6803F00F033A689A420CD2224BB3
:102C60003A68D2B21A70204B1B6803F00F033A681F
:102C70009A4201D0012332E07B681B6803F0040311
:102C8000002B08D0194B9B6823F4E0527B68DB686B
:102C9000164913438B607B681B6803F00803002B05
:102CA00009D0124B9B6823F460427B681B69DB00F0
:102CB0000E4913438B6000F021F801460B4B9B68D3
:102CC0001B0903F00F030A4AD35C21FA03F3094AF4
:102CD0001360094B1B6818460AF080FA0023184657
:102CE0001037BD4680BD00BF003C024000380240A6
:102CF000B44601081000002000000020F0B585B0A7
:102D000000AF00237B600023FB6000233B600023B7
:102D1000BB60634B9B6803F00C03042B07D0082BAC
:102D200008D0002B40F0B4805E4BBB60B3E05E4B3C
:102D3000BB60B0E05A4B5B6803F03F037B60584BCD
:102D40005B6803F48003002B4AD0554B5B689B09FA
:102D50004FF0000440F2FF114FF0000203EA0105BA
:102D600004EA0206294632464FF000034FF0000401
:102D7000540144EAD1644B0119462246491B62EBD7
:102D800006024FF000034FF00004940144EA9164FE
:102D90008B015B1A64EB02044FF000014FF000025C
:102DA000E20042EA5372D9000B4614465B1944EB29
:102DB00006044FF000014FF00002220242EA1362C3
:102DC00019020B461446184621467B684FF0000452
:102DD0001A462346FDF76CFA03460C46FB6049E0B1
:102DE0002F4B5B689B094FF0000440F2FF114FF03E
:102DF000000203EA010504EA0206294632464FF0C2
:102E000000034FF00004540144EAD1644B01194619
:102E10002246491B62EB06024FF000034FF000040C
:102E2000940144EA91648B015B1A64EB02044FF055
:102E300000014FF00002E20042EA5372D9000B4653
:102E400014465B1944EB06044FF000014FF00002FA
:102E5000A20242EA935299020B46144618462146B2
:102E60007B684FF000041A462346FDF721FA03461B
:102E70000C46FB600A4B5B681B0C03F00303013339
:102E80005B003B60FA683B68B2FBF3F3BB6002E0B7
:102E9000044BBB6000BFBB6818461437BD46F0BD8D
:102EA000003802400024F40000093D0080B400AF67
:102EB000034B1B681846BD465DF8047B704700BF96
:102EC0001000002080B500AFFFF7F0FF0146054B72
:102ED0009B689B0A03F00703034AD35C21FA03F3C0
:102EE000184680BD00380240C446010880B500AFD6
:102EF000FFF7DCFF0146054B9B685B0B03F0070304
:102F0000034AD35C21FA03F3184680BD003802401F
:102F1000C446010880B586B000AF786000233B61ED
:102F20007B681B6803F00103002B75D0A24B9B68E4
:102F300003F00C03042B0CD09F4B9B6803F00C0395
:102F4000082B12D19C4B5B6803F48003B3F5800F10
:102F50000BD1994B1B6803F40033002B5BD07B68CB
:102F60005B68002B57D101230BE27B685B68B3F5EC
:102F7000803F06D1904B1B688F4A43F48033136027
:102F80001DE07B685B68B3F5A02F0CD18A4B1B68F2
:102F9000894A43F480231360874B1B68864A43F4B5
:102FA000803313600BE0844B1B68834A23F4803327
:102FB0001360814B1B68804A23F4802313607B6875
:102FC0005B68002B13D0FDF791FB386108E0FDF73B
:102FD0008DFB02463B69D31A642B01D90323D0E150
:102FE000754B1B6803F40033002BF0D014E0FDF7A1
:102FF0007DFB386108E0FDF779FB02463B69D31A97
:10300000642B01D90323BCE16B4B1B6803F4003331
:10301000002BF0D100E000BF7B681B6803F00203C7
:10302000002B63D0644B9B6803F00C03002B0BD088
:10303000614B9B6803F00C03082B1CD15E4B5B6853
:1030400003F48003002B16D15B4B1B6803F00203D3
:10305000002B05D07B68DB68012B01D0012390E1B8
:10306000554B1B6823F0F8027B681B69DB00524953
:1030700013430B603AE07B68DB68002B20D04F4B9A
:1030800001221A60FDF732FB386108E0FDF72EFBE4
:1030900002463B69D31A022B01D9032371E1464B47
:1030A0001B6803F00203002BF0D0434B1B6823F096
:1030B000F8027B681B69DB003F4913430B6015E096
:1030C0003E4B00221A60FDF711FB386108E0FDF766
:1030D0000DFB02463B69D31A022B01D9032350E1B1
:1030E000354B1B6803F00203002BF0D17B681B6893
:1030F00003F00803002B30D07B685B69002B16D0EF
:103100002F4B01221A60FDF7F1FA386108E0FDF754
:10311000EDFA02463B69D31A022B01D9032330E1B1
:10312000254B5B6F03F00203002BF0D015E0244B1E
:1031300000221A60FDF7DAFA386108E0FDF7D6FAE6
:1031400002463B69D31A022B01D9032319E11A4B1A
:103150005B6F03F00203002BF0D17B681B6803F068
:103160000403002B00F09F800023FB75124B1B6CA7
:1031700003F08053002B0FD10023FB600E4B1B6C20
:103180000D4A43F0805313640B4B1B6C03F08053C8
:10319000FB60FB680123FB750A4B1B6803F480731B
:1031A000002B20D1074B1B68064A43F48073136041
:1031B000FDF79CFA386110E00038024000004742F9
:1031C000800E474200700040FDF790FA02463B69CE
:1031D000D31A022B01D90323D3E06C4B1B6803F4F1
:1031E0008073002BF0D07B689B68012B06D1684B65
:1031F0001B6F674A43F0010313671CE07B689B6801
:10320000052B0CD1624B1B6F614A43F0040313671B
:103210005F4B1B6F5E4A43F0010313670BE05C4B8F
:103220001B6F5B4A23F001031367594B1B6F584A0E
:1032300023F0040313677B689B68002B15D0FDF710
:1032400055FA38610AE0FDF751FA02463B69D31A94
:1032500041F28832934201D9032392E04C4B1B6F19
:1032600003F00203002BEED014E0FDF73FFA3861C3
:103270000AE0FDF73BFA02463B69D31A41F2883275
:10328000934201D903237CE0414B1B6F03F00203FF
:10329000002BEED1FB7D012B05D13D4B1B6C3C4A35
:1032A00023F0805313647B689B69002B68D0384BF4
:1032B0009B6803F00C03082B60D07B689B69022B92
:1032C00045D1344B00221A60FDF710FA386108E04E
:1032D000FDF70CFA02463B69D31A022B01D90323EE
:1032E0004FE02B4B1B6803F00073002BF0D17B6881
:1032F000DA697B681B6A1A437B685B6A9B011A4325
:103300007B689B6A5B08013B1B041A437B68DB6A92
:103310001B061A437B681B6B1B071D4913434B603D
:103320001C4B01221A60FDF7E1F9386108E0FDF756
:10333000DDF902463B69D31A022B01D9032320E0B1
:10334000134B1B6803F00073002BF0D018E0114BF7
:1033500000221A60FDF7CAF9386108E0FDF7C6F9E6
:1033600002463B69D31A022B01D9032309E0084B1B
:103370001B6803F00073002BF0D101E0012300E093
:10338000002318461837BD4680BD00BF00700040BE
:10339000003802406000474280B582B000AF7860DC
:1033A0007B68002B01D1012376E07B6800229A62C2
:1033B0007B6893F85130DBB2002B26D17B6800226A
:1033C00083F850207B68364A9A657B68354ADA650F
:1033D0007B68354A1A667B68344A5A667B68344A89
:1033E0009A667B68334ADA667B68334A1A677B6879
:1033F000324A5A677B689B6F002B02D17B68304A48
:103400009A677B689B6F786898477B68022283F88D
:1034100051207B681B681A687B681B6822F0400299
:103420001A607B685A687B689B681A437B68DB6814
:103430001A437B681B691A437B685B691A437B6884
:103440009B6903F400731A437B68DB691A437B684A
:103450001B6A42EA03017B689A6A7B681B680A431D
:103460001A607B689B691B0C03F004017B685A6A35
:103470007B681B680A435A607B681B68DA697B6853
:103480001B6822F40062DA617B6800225A657B685F
:10349000012283F85120002318460837BD4680BD1D
:1034A000D9DF00084547000835E000085947000803
:1034B0006D4700088147000895470008A9470008A4
:1034C0008D8A000880B588B000AFF860B9603B60B5
:1034D0001346FB800023FB77FB6893F85030012BE9
:1034E00001D102231EE1FB68012283F85020FDF781
:1034F000FDF8B861FB88FB82FB6893F85130DBB2C2
:10350000012B02D00223FB7703E1BB68002B02D022
:10351000FB88002B02D10123FB77FAE0FB68032232
:1035200083F85120FB6800225A65FB68BA681A6369
:10353000FB68FA889A86FB68FA88DA86FB680022BC
:103540009A63FB6800229A87FB680022DA87FB688F
:1035500000225A64FB6800221A64FB689B68B3F57A
:10356000004F07D1FB681B681A68FB681B6842F4B0
:1035700080421A60FB681B681B6803F04003402B05
:1035800007D0FB681B681A68FB681B6842F04002A2
:103590001A60FB68DB68B3F5006F4BD1FB685B68B2
:1035A000002B02D0FB8A012B3ED1FB681B6B1A88D3
:1035B000FB681B68DA60FB681B6B9A1CFB681A636C
:1035C000FB68DB8E9BB2013B9AB2FB68DA862BE08C
:1035D000FB681B689B6803F00203022B12D1FB6897
:1035E0001B6B1A88FB681B68DA60FB681B6B9A1CF4
:1035F000FB681A63FB68DB8E9BB2013B9AB2FB68E7
:10360000DA8611E0FDF772F80246BB69D31A3A6810
:103610009A4203D83B68B3F1FF3F02D13B68002BCD
:1036200002D10323FB7774E0FB68DB8E9BB2002B97
:10363000CED14CE0FB685B68002B02D0FB8A012BEB
:1036400040D1FB681A6BFB681B680C3312781A7048
:10365000FB681B6B5A1CFB681A63FB68DB8E9BB212
:10366000013B9AB2FB68DA862CE0FB681B689B681A
:1036700003F00203022B13D1FB681A6BFB681B6873
:103680000C3312781A70FB681B6B5A1CFB681A63A8
:10369000FB68DB8E9BB2013B9AB2FB68DA8611E0D5
:1036A000FDF724F80246BB69D31A3A689A4203D858
:1036B0003B68B3F1FF3F02D13B68002B02D10323EB
:1036C000FB7726E0FB68DB8E9BB2002BCDD1BA697D
:1036D0003968F86801F062FA0346002B02D0FB68F3
:1036E00020225A65FB689B68002B0AD100233B61AE
:1036F000FB681B68DB683B61FB681B689B683B6180
:103700003B69FB685B6D002B02D00123FB7700E077
:1037100000BFFB68012283F85120FB68002283F878
:103720005020FB7F18462037BD4680BD80B588B04D
:1037300002AFF860B9603B601346FB800023FB7565
:10374000FB685B68B3F5827F12D1FB689B68002B36
:103750000ED1FB68042283F85120FA883B6800935D
:103760001346BA68B968F86800F098FA0346E2E0D0
:10377000FB6893F85030012B01D10223DBE0FB689A
:10378000012283F85020FCF7B1FF3861FB6893F801
:103790005130DBB2012B02D00223FB75C2E0BB68C3
:1037A000002B02D0FB88002B02D10123FB75B9E06E
:1037B000FB68042283F85120FB6800225A65FB68ED
:1037C000BA689A63FB68FA889A87FB68FA88DA878E
:1037D000FB6800221A63FB6800229A86FB680022BD
:1037E000DA86FB6800221A64FB6800225A64FB68D0
:1037F0009B68B3F5004F07D1FB681B681A68FB682C
:103800001B6822F480421A60FB681B681B6803F087
:103810004003402B07D0FB681B681A68FB681B68D5
:1038200042F040021A60FB68DB68002B62D12EE098
:10383000FB681B689B6803F00103012B15D1FB6833
:103840001B6803F10C02FB689B6B1278D2B21A70F2
:10385000FB689B6B5A1CFB689A63FB68DB8F9BB20F
:10386000013B9AB2FB68DA8711E0FCF73FFF0246A2
:103870003B69D31A3A689A4203D83B68B3F1FF3FD9
:1038800002D13B68002B02D10323FB754AE0FB68A1
:10389000DB8F9BB2002BCBD131E0FB681B689B68B0
:1038A00003F00103012B13D1FB681B68DA68FB6886
:1038B0009B6B92B21A80FB689B6B9A1CFB689A63A5
:1038C000FB68DB8F9BB2013B9AB2FB68DA8711E0A1
:1038D000FCF70CFF02463B69D31A3A689A4203D8B8
:1038E0003B68B3F1FF3F02D13B68002B02D10323B9
:1038F000FB7517E0FB68DB8F9BB2002BCDD13A69DB
:103900003968F86801F0E5F80346002B02D0FB683F
:1039100020225A65FB685B6D002B02D00123FB75EA
:1039200000E000BFFB68012283F85120FB68002201
:1039300083F85020FB7D18461837BD4680BD000037
:1039400080B58CB000AFF860B9607A607B800123ED
:10395000FB62002387F82B30844B4FF480329A614E
:10396000FB6893F85030012B01D102238FE1FB68F3
:10397000012283F85020FCF7B9FE7862FB6893F8C7
:10398000513087F82330FB685B68FB617B887B8361
:1039900097F82330012B0FD0FB69B3F5827F07D155
:1039A000FB689B68002B03D197F82330042B03D0CE
:1039B000022387F82B305DE1BB68002B05D07B68C4
:1039C000002B02D07B88002B03D1012387F82B30FA
:1039D00050E1FB6893F85130DBB2042B03D0FB6855
:1039E000052283F85120FB6800225A65FB687A683B
:1039F0009A63FB687A88DA87FB687A889A87FB681B
:103A0000BA681A63FB687A88DA86FB687A889A86CD
:103A1000FB6800221A64FB6800225A64FB681B687A
:103A20001B6803F04003402B07D0FB681B681A6833
:103A3000FB681B6842F040021A60FB68DB68B3F564
:103A4000006F78D1FB685B68002B02D07B8B012B69
:103A500066D1FB681B6B1A88FB681B68DA60FB6821
:103A60001B6B9A1CFB681A63FB68DB8E9BB2013BE5
:103A70009AB2FB68DA8653E0FB681B689B6803F028
:103A80000203022B1BD1FB68DB8E9BB2002B16D0EE
:103A9000FB6A012B13D1FB681B6B1A88FB681B6840
:103AA000DA60FB681B6B9A1CFB681A63FB68DB8E91
:103AB0009BB2013B9AB2FB68DA860023FB62FB688B
:103AC0001B689B6803F00103012B19D1FB68DB8F96
:103AD0009BB2002B14D0FB681B68DA68FB689B6BF9
:103AE00092B21A80FB689B6B9A1CFB689A63FB6816
:103AF000DB8F9BB2013B9AB2FB68DA870123FB6242
:103B0000FCF7F4FD02467B6AD31ABA6B9A4207D8D7
:103B1000BB6BB3F1FF3F03D0032387F82B30A9E041
:103B2000FB68DB8E9BB2002BA6D1FB68DB8F9BB2C0
:103B3000002BA1D17EE0FB685B68002B02D07B8B61
:103B4000012B6DD1FB681A6BFB681B680C33127874
:103B50001A70FB681B6B5A1CFB681A63FB68DB8ED0
:103B60009BB2013B9AB2FB68DA8659E00000024042
:103B7000FB681B689B6803F00203022B1CD1FB68E7
:103B8000DB8E9BB2002B17D0FB6A012B14D1FB6894
:103B90001A6BFB681B680C3312781A70FB681B6B7E
:103BA0005A1CFB681A63FB68DB8E9BB2013B9AB21E
:103BB000FB68DA860023FB62FB681B689B6803F0E6
:103BC0000103012B19D1FB68DB8F9BB2002B14D0B2
:103BD000FB681B68DA68FB689B6BD2B21A70FB68E3
:103BE0009B6B5A1CFB689A63FB68DB8F9BB2013BA3
:103BF0009AB2FB68DA870123FB62FCF777FD024685
:103C00007B6AD31ABA6B9A4203D8BB6BB3F1FF3FFE
:103C100002D1BB6B002B03D1032387F82B3029E0A3
:103C2000FB68DB8E9BB2002BA2D1FB68DB8F9BB2C3
:103C3000002B9DD17A6AB96BF86800F0AFFF03469C
:103C4000002B06D0012387F82B30FB6820225A6511
:103C500010E0FB689B68002B0BD100237B61FB68A5
:103C60001B68DB687B61FB681B689B687B617B6909
:103C700000E000BFFB68012283F85120FB680022AE
:103C800083F85020044B01229A6197F82B30184694
:103C90003037BD4680BD00BF0000024080B58CB00B
:103CA00000AFF860B9607A607B800123FB6200237B
:103CB00087F82B30FB6893F85030012B01D1022399
:103CC0008AE1FB68012283F85020FCF70FFD78623F
:103CD000FB6893F8513087F82330FB685B68FB6121
:103CE0007B887B8397F82330012B0FD0FB69B3F5DA
:103CF000827F07D1FB689B68002B03D197F82330A4
:103D0000042B03D0022387F82B305BE1BB68002B28
:103D100005D07B68002B02D07B88002B03D10123C8
:103D200087F82B304EE1FB6893F85130DBB2042B5F
:103D300003D0FB68052283F85120FB6800225A65F6
:103D4000FB687A689A63FB687A88DA87FB687A8806
:103D50009A87FB68BA681A63FB687A88DA86FB6818
:103D60007A889A86FB6800221A64FB6800225A64EB
:103D7000FB681B681B6803F04003402B07D0FB68FF
:103D80001B681A68FB681B6842F040021A60FB68F7
:103D9000DB68B3F5006F78D1FB685B68002B02D05D
:103DA0007B8B012B66D1FB681B6B1A88FB681B6839
:103DB000DA60FB681B6B9A1CFB681A63FB68DB8E7E
:103DC0009BB2013B9AB2FB68DA8653E0FB681B6842
:103DD0009B6803F00203022B1BD1FB68DB8E9BB2B6
:103DE000002B16D0FB6A012B13D1FB681B6B1A88C2
:103DF000FB681B68DA60FB681B6B9A1CFB681A6324
:103E0000FB68DB8E9BB2013B9AB2FB68DA8600232B
:103E1000FB62FB681B689B6803F00103012B19D14F
:103E2000FB68DB8F9BB2002B14D0FB681B68DA6841
:103E3000FB689B6B92B21A80FB689B6B9A1CFB68B9
:103E40009A63FB68DB8F9BB2013B9AB2FB68DA870F
:103E50000123FB62FCF74AFC02467B6AD31ABA6B69
:103E60009A4207D8BB6BB3F1FF3F03D0032387F817
:103E70002B30A7E0FB68DB8E9BB2002BA6D1FB6842
:103E8000DB8F9BB2002BA1D17CE0FB685B68002B31
:103E900002D07B8B012B6BD1FB681A6BFB681B6814
:103EA0000C3312781A70FB681B6B5A1CFB681A6380
:103EB000FB68DB8E9BB2013B9AB2FB68DA8657E067
:103EC000FB681B689B6803F00203022B1CD1FB6894
:103ED000DB8E9BB2002B17D0FB6A012B14D1FB6841
:103EE0001A6BFB681B680C3312781A70FB681B6B2B
:103EF0005A1CFB681A63FB68DB8E9BB2013B9AB2CB
:103F0000FB68DA860023FB62FB681B689B6803F092
:103F10000103012B19D1FB68DB8F9BB2002B14D05E
:103F2000FB681B68DA68FB689B6BD2B21A70FB688F
:103F30009B6B5A1CFB689A63FB68DB8F9BB2013B4F
:103F40009AB2FB68DA870123FB62FCF7CFFB0246DB
:103F50007B6AD31ABA6B9A4203D8BB6BB3F1FF3FAB
:103F600002D1BB6B002B03D1032387F82B3029E050
:103F7000FB68DB8E9BB2002BA2D1FB68DB8F9BB270
:103F8000002B9DD17A6AB96BF86800F007FE0346F2
:103F9000002B06D0012387F82B30FB6820225A65BE
:103FA00010E0FB689B68002B0BD100237B61FB6852
:103FB0001B68DB687B61FB681B689B687B617B69B6
:103FC00000E000BFFB68012283F85120FB6800225B
:103FD00083F8502097F82B3018463037BD4680BD07
:103FE00080B586B000AFF860B9601346FB8000234F
:103FF000FB75FB6893F85030012B01D1022393E04D
:10400000FB68012283F85020FB6893F85130DBB243
:10401000012B02D00223FB7581E0BB68002B02D08C
:10402000FB88002B02D10123FB7578E0FB6803229B
:1040300083F85120FB6800225A65FB68BA681A634E
:10404000FB68FA889A86FB68FA88DA86FB680022A1
:104050009A63FB6800225A64FB6800221A64FB68BA
:1040600000229A87FB680022DA87FB689B68B3F519
:10407000004F07D1FB681B681A68FB681B6842F495
:1040800080421A60FB689B6C294A1A64FB689B6C2F
:10409000284ADA63FB689B6C274ADA64FB689B6CEE
:1040A00000221A65FB68986CFB681B6B1946FB685D
:1040B0001B680C331A46FB68DB8E9BB2FCF762FD73
:1040C0000346002B0CD0FB685B6D43F01002FB68CD
:1040D0005A650123FB75FB68012283F851201EE01D
:1040E000FB681B681B6803F04003402B07D0FB688C
:1040F0001B681A68FB681B6842F040021A60FB6884
:104100001B685A68FB681B6842F020025A60FB6813
:104110001B685A68FB681B6842F002025A60FB6821
:10412000002283F85020FB7D18461837BD4680BD1D
:1041300063490008BD470008BD49000880B586B046
:1041400000AFF860B9607A607B800023FB75FB6884
:1041500093F85030012B01D10223E1E0FB680122EA
:1041600083F85020FB6893F85130BB75FB685B689F
:104170003B61BB7D012B0DD03B69B3F5827F06D13E
:10418000FB689B68002B02D1BB7D042B02D002236D
:10419000FB75C0E0FB6893F85130DBB2042B03D011
:1041A000FB68052283F85120FB6800225A65FB68F2
:1041B000BA681A63FB687A889A86FB687A88DA8616
:1041C000FB687A689A63FB687A889A87FB687A88C2
:1041D000DA87FB6800221A64FB6800225A64FB68D5
:1041E00093F85130DBB2042B08D1FB68DB6C4E4AEC
:1041F0001A64FB68DB6C4D4ADA6307E0FB68DB6C32
:104200004B4A1A64FB68DB6C4A4ADA63FB68DB6C76
:10421000494ADA64FB68DB6C00221A65FB68D86CDB
:10422000FB681B680C331946FB689B6B1A46FB68DE
:10423000DB8F9BB2FCF7A6FC0346002B0CD0FB687F
:104240005B6D43F01002FB685A650123FB75FB6848
:10425000012283F851205EE0FB681B685A68FB6806
:104260001B6842F001025A60FB689B6C00221A64D2
:10427000FB689B6C0022DA63FB689B6C0022DA64AB
:10428000FB689B6C00221A65FB68986CFB681B6BD3
:104290001946FB681B680C331A46FB68DB8E9BB221
:1042A000FCF770FC0346002B0CD0FB685B6D43F001
:1042B0001002FB685A650123FB75FB68012283F835
:1042C000512028E0FB681B681B6803F04003402B6B
:1042D00007D0FB681B681A68FB681B6842F0400245
:1042E0001A60FB681B685A68FB681B6842F0200272
:1042F0005A60124B01221A70114B00221A70114B96
:104300004FF480329A61FB681B685A68FB681B682F
:1043100042F002025A60FB68002283F85020FB7DC5
:1043200018461837BD4680BD814900084748000837
:104330009F490008CF480008BD490008E00200205E
:10434000DD0200200000024080B586B000AFF860BA
:10435000B9607A607B800023FB75FB6893F850306E
:10436000012B01D10223DBE0FB68012283F85020FE
:10437000FB6893F85130BB75FB685B683B61BB7DA4
:10438000012B0DD03B69B3F5827F06D1FB689B689A
:10439000002B02D1BB7D042B02D00223FB75BAE0B7
:1043A000FB6893F85130DBB2042B03D0FB68052285
:1043B00083F85120FB6800225A65FB68BA681A63CB
:1043C000FB687A889A86FB687A88DA86FB687A685E
:1043D0009A63FB687A889A87FB687A88DA87FB6831
:1043E00000221A64FB6800225A64FB6893F851307B
:1043F000DBB2042B08D1FB68DB6C4B4A1A64FB6808
:10440000DB6C4A4ADA6307E0FB68DB6C484A1A64F3
:10441000FB68DB6C474ADA63FB68DB6C464ADA64AC
:10442000FB68DB6C00221A65FB68D86CFB681B68B4
:104430000C331946FB689B6B1A46FB68DB8F9BB2FB
:10444000FCF7A0FB0346002B0CD0FB685B6D43F030
:104450001002FB685A650123FB75FB68012283F893
:10446000512058E0FB681B685A68FB681B6842F0E3
:1044700001025A60FB689B6C00221A64FB689B6C0B
:104480000022DA63FB689B6C0022DA64FB689B6C99
:1044900000221A65FB68986CFB681B6B1946FB6869
:1044A0001B680C331A46FB68DB8E9BB2FCF76AFB79
:1044B0000346002B0CD0FB685B6D43F01002FB68D9
:1044C0005A650123FB75FB68012283F8512022E025
:1044D000FB681B681B6803F04003402B07D0FB6898
:1044E0001B681A68FB681B6842F040021A60FB6890
:1044F0001B685A68FB681B6842F020025A600F4B29
:104500004FF000429A61FB681B685A68FB681B68A1
:1045100042F002025A60FB68002283F85020FB7DC3
:1045200018461837BD4680BD814900084748000835
:104530009F490008CF480008BD490008000002401C
:1045400080B586B000AFF860B9607A607B800023E8
:10455000FB75FB6893F85030012B01D10223E3E097
:10456000FB68012283F85020FB6893F85130BB753B
:10457000FB685B683B61BB7D012B0DD03B69B3F5EC
:10458000827F06D1FB689B68002B02D1BB7D042B88
:1045900002D00223FB75C2E0BB68002B05D07B680C
:1045A000002B02D07B88002B02D10123FB75B6E0E3
:1045B000FB6893F85130DBB2042B03D0FB68052273
:1045C00083F85120FB6800225A65FB68BA681A63B9
:1045D000FB687A889A86FB687A88DA86FB687A684C
:1045E0009A63FB687A889A87FB687A88DA87FB681F
:1045F00000221A64FB6800225A64FB6893F8513069
:10460000DBB2042B08D1FB68DB6C494A1A64FB68F7
:10461000DB6C484ADA6307E0FB68DB6C464A1A64E5
:10462000FB68DB6C454ADA63FB68DB6C444ADA649E
:10463000FB68DB6C00221A65FB68D86CFB681B68A2
:104640000C331946FB689B6B1A46FB68DB8F9BB2E9
:10465000FCF798FA0346002B0CD0FB685B6D43F027
:104660001002FB685A650123FB75FB68012283F881
:10467000512054E0FB681B685A68FB681B6842F0D5
:1046800001025A60FB689B6C00221A64FB689B6CF9
:104690000022DA63FB689B6C0022DA64FB689B6C87
:1046A00000221A65FB68986CFB681B6B1946FB6857
:1046B0001B680C331A46FB68DB8E9BB2FCF762FA70
:1046C0000346002B0CD0FB685B6D43F01002FB68C7
:1046D0005A650123FB75FB68012283F851201EE017
:1046E000FB681B681B6803F04003402B07D0FB6886
:1046F0001B681A68FB681B6842F040021A60FB687E
:104700001B685A68FB681B6842F020025A60FB680D
:104710001B685A68FB681B6842F002025A60FB681B
:10472000002283F85020FB7D18461837BD4680BD17
:1047300081490008474800089F490008CF48000801
:10474000BD49000880B483B000AF786000BF0C376B
:10475000BD465DF8047B704780B483B000AF7860DD
:1047600000BF0C37BD465DF8047B704780B483B052
:1047700000AF786000BF0C37BD465DF8047B704722
:1047800080B483B000AF786000BF0C37BD465DF8E1
:10479000047B704780B483B000AF786000BF0C37F3
:1047A000BD465DF8047B704780B483B000AF78608D
:1047B00000BF0C37BD465DF8047B704780B584B000
:1047C00000AF78607B689B6BFB607B681B681B6835
:1047D00003F48073B3F5807F2ED0FB681B685A68A2
:1047E000FB681B6822F020025A60FB681B685A684D
:1047F000FB681B6822F002025A60FB689B68002B72
:104800000AD10023BB60FB681B68DB68BB60FB68E8
:104810001B689B68BB60BB68FB680022DA86FB688C
:10482000012283F85120FB685B6D002B04D0FB68EC
:104830001B6FF868984703E0FB689B6DF868984722
:104840001037BD4680BD80B584B000AF78607B680E
:104850009B6BFB60FBF74AFFB8607B681B681B68BB
:1048600003F48073B3F5807F2AD0FB681B685A6815
:10487000FB681B6822F020025A60FB681B685A68BC
:10488000FB681B6822F003025A60BA686421F8686A
:1048900000F01FF90346002B02D0FB6820225A6566
:1048A000FB680022DA87FB68012283F85120FB684D
:1048B0005B6D002B04D0FB681B6FF868984703E022
:1048C000FB68DB6DF86898471037BD4680BD80B542
:1048D00084B000AF78607B689B6BFB60FBF706FFE2
:1048E000B8607B681B681B6803F48073B3F5807F36
:1048F00030D0FB681B685A68FB681B6822F02002F6
:104900005A60BA686421F86800F048F90346002B41
:1049100005D0FB685B6D43F02002FB685A65FB68BD
:104920001B685A68FB681B6822F003025A60FB6828
:104930000022DA86FB680022DA87FB68012283F80E
:104940005120FB685B6D002B04D0FB681B6FF8687F
:10495000984703E0FB681B6EF86898471037BD4620
:1049600080BD80B584B000AF78607B689B6BFB60D6
:10497000FB685B6EF868984700BF1037BD4680BD86
:1049800080B584B000AF78607B689B6BFB60FB6890
:104990009B6EF868984700BF1037BD4680BD80B554
:1049A00084B000AF78607B689B6BFB60FB68DB6E5C
:1049B000F868984700BF1037BD4680BD80B584B009
:1049C00000AF78607B689B6BFB60FB681B685A6874
:1049D000FB681B6822F003025A60FB685B6D43F0C2
:1049E0001002FB685A65FB68012283F85120FB68BE
:1049F0001B6FF868984700BF1037BD4680BD80B573
:104A000084B000AFF860B9603B601346FB714CE0C6
:104A10003B68B3F1FF3F48D0FBF768FE0246BB6935
:104A2000D31A3A689A4202D93B68002B3DD1FB6801
:104A30001B685A68FB681B6822F0E0025A60FB683A
:104A40005B68B3F5827F11D1FB689B68B3F5004FBB
:104A500004D0FB689B68B3F5806F07D1FB681B68C7
:104A60001A68FB681B6822F040021A60FB689B6AA8
:104A7000B3F5005F0FD1FB681B681A68FB681B6801
:104A800022F400521A60FB681B681A68FB681B68F6
:104A900042F400521A60FB68012283F85120FB683F
:104AA000002283F8502003230FE0FB681B689A68FC
:104AB000BB681340BA689A420CBF01230023DBB2E3
:104AC0001A46FB799A42A3D1002318461037BD46F7
:104AD00080BD80B586B002AFF860B9607A60FB68CF
:104AE0005B68B3F5827F11D1FB689B68B3F5004F1B
:104AF00004D0FB689B68B3F5806F07D1FB681B6827
:104B00001A68FB681B6822F040021A60FB685B6849
:104B1000B3F5827F2AD1FB689B68B3F5806F12D012
:104B20007B680093BB6800228021F868FFF767FF6D
:104B30000346002B2DD0FB685B6D43F02002FB6821
:104B40005A65032326E07B680093BB68002201219D
:104B5000F868FFF754FF0346002B1AD0FB685B6D23
:104B600043F02002FB685A65032313E07B6800933F
:104B7000BB6800220121F868FFF741FF0346002BC4
:104B800007D0FB685B6D43F02002FB685A65032386
:104B900000E0002318461037BD4680BD80B588B0C0
:104BA00002AFF860B9607A601B4B1B681B4AA2FB1E
:104BB00003235B0D4FF47A7202FB03F37B61FB6806
:104BC0005B68B3F5827F12D17B680093BB680022DB
:104BD0008021F868FFF713FF0346002B16D0FB680F
:104BE0005B6D43F02002FB685A6503230FE07B698D
:104BF000002B0AD07B69013B7B61FB681B689B68CB
:104C000003F08003802BF2D000E000BF00231846A1
:104C10001837BD4680BD00BF10000020819F5E1682
:104C200080B582B000AF78607B68002B01D1012392
:104C30001DE07B6893F83D30DBB2002B06D17B682A
:104C4000002283F83C20786804F038F97B6802225F
:104C500083F83D207B681A687B6804331946104648
:104C600000F01EFA7B68012283F83D2000231846DD
:104C70000837BD4680BD80B485B000AF78607B68E2
:104C80001B68DA687B681B6842F00102DA607B68A7
:104C90001B689B6803F00703FB60FB68062B07D0CB
:104CA0007B681B681A687B681B6842F001021A6007
:104CB000002318461437BD465DF8047B704780B565
:104CC00082B000AF78607B681B681B6903F0020349
:104CD000022B22D17B681B68DB6803F00203022BE6
:104CE0001BD17B681B686FF002021A617B6801228E
:104CF0001A777B681B689B6903F00303002B03D0C2
:104D0000786800F0AFF905E0786800F0A1F97868FC
:104D100000F0B2F97B6800221A777B681B681B6978
:104D200003F00403042B22D17B681B68DB6803F0CB
:104D30000403042B1BD17B681B686FF004021A610B
:104D40007B6802221A777B681B689B6903F44073B7
:104D5000002B03D0786800F085F905E0786800F052
:104D600077F9786800F088F97B6800221A777B6809
:104D70001B681B6903F00803082B22D17B681B68A2
:104D8000DB6803F00803082B1BD17B681B686FF0FE
:104D900008021A617B6804221A777B681B68DB694A
:104DA00003F00303002B03D0786800F05BF905E003
:104DB000786800F04DF9786800F05EF97B680022B1
:104DC0001A777B681B681B6903F01003102B22D134
:104DD0007B681B68DB6803F01003102B1BD17B681A
:104DE0001B686FF010021A617B6808221A777B68D3
:104DF0001B68DB6903F44073002B03D0786800F074
:104E000031F905E0786800F023F9786800F034F9AA
:104E10007B6800221A777B681B681B6903F001031B
:104E2000012B0ED17B681B68DB6803F00103012BAB
:104E300007D17B681B686FF001021A61786800F087
:104E4000FDF87B681B681B6903F08003802B0ED183
:104E50007B681B68DB6803F08003802B07D17B68CD
:104E60001B686FF080021A61786800F0D9FA7B68DD
:104E70001B681B6903F04003402B0ED17B681B6845
:104E8000DB6803F04003402B07D17B681B686FF0A1
:104E900040021A61786800F0F9F87B681B681B69AA
:104EA00003F02003202B0ED17B681B68DB6803F026
:104EB0002003202B07D17B681B686FF020021A614A
:104EC000786800F0A3FA00BF0837BD4680BD80B502
:104ED00084B000AF786039607B6893F83C30012B78
:104EE00001D10223A6E07B68012283F83C207B6885
:104EF000022283F83D207B681B689B68FB60FB688F
:104F000023F07703FB60FB6823F47F43FB607B683F
:104F10001B68FA689A603B681B68402B67D0402B7F
:104F20000BD8102B73D0102B02D8002B6FD078E049
:104F3000202B6CD0302B6AD073E0702B0DD0702BEF
:104F400004D8502B33D0602B41D06AE0B3F5805F9A
:104F500066D0B3F5005F17D063E07B6818683B68E4
:104F600099683B685A683B68DB6800F0B3F97B6876
:104F70001B689B68FB60FB6843F07703FB607B6802
:104F80001B68FA689A604CE07B6818683B6899680F
:104F90003B685A683B68DB6800F09CF97B681B68DB
:104FA0009A687B681B6842F480429A6039E07B68AB
:104FB00018683B6859683B68DB681A4600F010F9CE
:104FC0007B681B685021184600F069F929E07B686E
:104FD00018683B6859683B68DB681A4600F02FF98F
:104FE0007B681B686021184600F059F919E07B685E
:104FF00018683B6859683B68DB681A4600F0F0F8AF
:105000007B681B684021184600F049F909E07B687D
:105010001A683B681B681946104600F040F900E02A
:1050200000BF7B68012283F83D207B68002283F863
:105030003C20002318461037BD4680BD80B483B0A5
:1050400000AF786000BF0C37BD465DF8047B704749
:1050500080B483B000AF786000BF0C37BD465DF808
:10506000047B704780B483B000AF786000BF0C371A
:10507000BD465DF8047B704780B483B000AF7860B4
:1050800000BF0C37BD465DF8047B704780B483B029
:1050900000AF786000BF0C37BD465DF8047B7047F9
:1050A00080B485B000AF786039607B681B68FB60B6
:1050B0007B68404A934213D07B68B3F1804F0FD096
:1050C0007B683D4A93420BD07B683C4A934207D0B1
:1050D0007B683B4A934203D07B683A4A934208D1AB
:1050E000FB6823F07003FB603B685B68FA6813435E
:1050F000FB607B682F4A93422BD07B68B3F1804FD3
:1051000027D07B682C4A934223D07B682B4A93425A
:105110001FD07B682A4A93421BD07B68294A93425E
:1051200017D07B68284A934213D07B68274A934262
:105130000FD07B68264A93420BD07B68254A934266
:1051400007D07B68244A934203D07B68234A93426A
:1051500008D1FB6823F44073FB603B68DB68FA68A6
:105160001343FB60FB6823F080023B685B691343D9
:10517000FB607B68FA681A603B689A687B68DA6251
:105180003B681A687B689A627B680A4A934203D03C
:105190007B680C4A934203D13B681A697B681A63A7
:1051A0007B6801225A6100BF1437BD465DF8047B5D
:1051B000704700BF000001400004004000080040AC
:1051C000000C004000040140004001400044014048
:1051D0000048014000180040001C00400020004032
:1051E00080B487B000AFF860B9607A60FB681B6A72
:1051F0007B61FB681B6A23F00102FB681A62FB6893
:105200009B693B613B6923F0F0033B617B681B01B9
:105210003A6913433B617B6923F00A037B617A6936
:10522000BB6813437B61FB683A699A61FB687A69E2
:105230001A6200BF1C37BD465DF8047B704780B41E
:1052400087B000AFF860B9607A60FB681B6A23F032
:105250001002FB681A62FB689B697B61FB681B6A32
:105260003B617B6923F470437B617B681B037A6934
:1052700013437B613B6923F0A0033B61BB681B01C7
:105280003A6913433B61FB687A699A61FB683A6942
:105290001A6200BF1C37BD465DF8047B704780B4BE
:1052A00085B000AF786039607B689B68FB60FB6805
:1052B00023F07003FB603A68FB68134343F0070375
:1052C000FB607B68FA689A6000BF1437BD465DF8E2
:1052D000047B704780B487B000AFF860B9607A6033
:1052E0003B60FB689B687B617B6923F47F437B6148
:1052F0003B681A027B681A43BB6813437A691343FD
:105300007B61FB687A699A6000BF1C37BD465DF817
:10531000047B704780B485B000AF786039607B68EB
:1053200093F83C30012B01D102235AE07B68012223
:1053300083F83C207B68022283F83D207B681B6851
:105340005B68FB607B681B689B68BB60FB6823F045
:105350007003FB603B681B68FA681343FB607B6863
:105360001B68FA685A607B681B68214A934222D006
:105370007B681B68B3F1804F1DD07B681B681D4A9A
:10538000934218D07B681B681B4A934213D07B68FA
:105390001B681A4A93420ED07B681B68184A9342D6
:1053A00009D07B681B68174A934204D07B681B684E
:1053B000154A93420CD1BB6823F08003BB603B6865
:1053C0005B68BA681343BB607B681B68BA689A6005
:1053D0007B68012283F83D207B68002283F83C2013
:1053E000002318461437BD465DF8047B704700BFA4
:1053F000000001400004004000080040000C004094
:1054000000040140004001400018004080B483B017
:1054100000AF786000BF0C37BD465DF8047B704775
:1054200080B483B000AF786000BF0C37BD465DF834
:10543000047B704780B582B000AF78607B68002B3A
:1054400001D101233FE07B6893F83930DBB2002BB8
:1054500006D17B68002283F83820786803F0A8FD25
:105460007B68242283F839207B681B68DA687B68B4
:105470001B6822F40052DA60786800F0C7FB7B6892
:105480001B681A697B681B6822F490421A617B686A
:105490001B685A697B681B6822F02A025A617B6884
:1054A0001B68DA687B681B6842F40052DA607B682C
:1054B0000022DA637B68202283F839207B6820226F
:1054C00083F83A20002318460837BD4680BD80B5D2
:1054D00088B002AFF860B9603B601346FB800023E0
:1054E0007B61FB6893F83930DBB2202B40F083807E
:1054F000BB68002B02D0FB88002B01D101237BE08D
:10550000FB6893F83830012B01D1022374E0FB686B
:10551000012283F83820FB680022DA63FB6821222D
:1055200083F83920FBF7E2F87861FB68FA889A84FF
:10553000FB68FA88DA84FB68002283F8382042E0AE
:10554000FB68DB8C9BB2013B9AB2FB68DA84FB6898
:105550009B68B3F5805F22D13B6800937B69002292
:105560008021F86800F0E6F90346002B01D0032300
:1055700042E0BB683B613B691B881A46FB681B68BD
:10558000C2F308025A60FB681B69002B03D1BB6899
:105590000233BB6017E0BB680133BB6013E03B68BC
:1055A00000937B6900228021F86800F0C3F903466C
:1055B000002B01D003231FE0BB685A1CBA601A7885
:1055C000FB681B685A60FB68DB8C9BB2002BB7D171
:1055D0003B6800937B6900224021F86800F0AAF93B
:1055E0000346002B01D0032306E0FB68202283F84A
:1055F0003920002300E0022318461837BD4680BD3D
:1056000080B485B000AFF860B9601346FB80FB68DA
:1056100093F83930DBB2202B30D1BB68002B02D09D
:10562000FB88002B01D1012329E0FB6893F8383077
:10563000012B01D1022322E0FB68012283F83820EC
:10564000FB68BA681A62FB68FA889A84FB68FA8871
:10565000DA84FB680022DA63FB68212283F83920B0
:10566000FB68002283F83820FB681B68DA68FB6857
:105670001B6842F08002DA60002300E00223184633
:105680001437BD465DF8047B704780B485B000AF29
:10569000F860B9601346FB80FB6893F83A30DBB2E0
:1056A000202B40D1BB68002B02D0FB88002B01D1FE
:1056B000012339E0FB6893F83830012B01D1022334
:1056C00032E0FB68012283F83820FB68BA689A62EE
:1056D000FB68FA889A85FB68FA88DA85FB680022FD
:1056E000DA63FB68222283F83A20FB68002283F801
:1056F0003820FB681B68DA68FB681B6842F480721C
:10570000DA60FB681B685A69FB681B6842F001029B
:105710005A61FB681B68DA68FB681B6842F020026C
:10572000DA60002300E0022318461437BD465DF816
:10573000047B704780B588B000AF78607B681B68D9
:105740001B68FB617B681B68DB68BB617B681B684F
:105750005B697B6100233B610023FB60FB6903F015
:105760000F033B613B69002B0DD1FB6903F0200364
:10577000002B08D0BB6903F02003002B03D078680E
:1057800000F0C2F9D1E03B69002B00F0B0807B69EA
:1057900003F00103002B05D1BB6903F49073002BC8
:1057A00000F0A580FB6903F00103002B0AD0BB6960
:1057B00003F48073002B05D07B68DB6B43F00102A0
:1057C0007B68DA63FB6903F00403002B0AD07B6972
:1057D00003F00103002B05D07B68DB6B43F0020272
:1057E0007B68DA63FB6903F00203002B0AD07B6954
:1057F00003F00103002B05D07B68DB6B43F0040250
:105800007B68DA63FB6903F00803002B0FD0BB69E8
:1058100003F02003002B04D17B6903F00103002B6C
:1058200005D07B68DB6B43F008027B68DA637B683A
:10583000DB6B002B78D0FB6903F02003002B07D033
:10584000BB6903F02003002B02D0786800F05CF9FC
:105850007B681B685B6903F04003402B0CBF01238E
:105860000023DBB2FB607B68DB6B03F00803002BDB
:1058700002D1FB68002B31D0786800F0A5F87B6876
:105880001B685B6903F04003402B23D17B681B68D6
:105890005A697B681B6822F040025A617B685B6B27
:1058A000002B13D07B685B6B214A1A657B685B6BAE
:1058B0001846FBF723FA0346002B16D07B685B6B78
:1058C0001B6D7A68526B104698470EE0786808F0B6
:1058D00091FE0AE0786808F08DFE06E0786808F02E
:1058E00089FE7B680022DA631EE000BF1CE0FB69D2
:1058F00003F08003002B08D0BB6903F08003002B6A
:1059000003D0786800F092F80FE0FB6903F04003E1
:10591000002B0AD0BB6903F04003002B05D0786848
:1059200000F0DAF800BF00E000BF2037BD4680BDC0
:10593000055A000880B584B000AFF860B9603B60DC
:105940001346FB712CE0BB69B3F1FF3F28D0BB6964
:10595000002B07D0FAF7CAFE02463B68D31ABA6991
:105960009A421DD2FB681B68DA68FB681B6822F448
:10597000D072DA60FB681B685A69FB681B6822F00A
:1059800001025A61FB68202283F83920FB6820223B
:1059900083F83A20FB68002283F8382003230FE0C5
:1059A000FB681B681A68BB681340BA689A420CBF50
:1059B00001230023DBB21A46FB799A42C3D00023AD
:1059C00018461037BD4680BD80B483B000AF786004
:1059D0007B681B68DA687B681B6822F49072DA6067
:1059E0007B681B685A697B681B6822F001025A6158
:1059F0007B68202283F83A2000BF0C37BD465DF853
:105A0000047B704780B584B000AF78607B689B6B87
:105A1000FB60FB680022DA85FB680022DA84F86804
:105A200008F0E8FD00BF1037BD4680BD80B485B0EA
:105A300000AF78607B6893F83930DBB2212B44D11A
:105A40007B689B68B3F5805F1AD17B681B6AFB603B
:105A5000FB681B881A467B681B68C2F308025A6001
:105A60007B681B69002B05D17B681B6A9A1C7B68CD
:105A70001A620EE07B681B6A5A1C7B681A6208E097
:105A80007B681B6A591C7A6811621A787B681B68EC
:105A90005A607B68DB8C9BB2013B9BB27A681946EB
:105AA000D184002B0FD17B681B68DA687B681B6888
:105AB00022F08002DA607B681B68DA687B681B680A
:105AC00042F04002DA60002300E002231846143757
:105AD000BD465DF8047B704780B582B000AF78604A
