:020000040800F2
:10000000000004200D7F0008F17B0008F37B00084E
:10001000F57B0008F77B0008F97B00080000000072
:10002000000000000000000000000000FB7B000852
:10003000FD7B000800000000FF7B0008017C000839
:100040005D7F00085D7F00085D7F00085D7F000820
:100050005D7F00085D7F00085D7F00085D7F000810
:100060005D7F00085D7F00085D7F00085D7F000800
:100070005D7F00088D7D00085D7F00089D7D000884
:100080005D7F00085D7F00085D7F00085D7F0008E0
:100090005D7F00085D7F00085D7F0008157E000819
:1000A0005D7F00085D7F00085D7F00085D7F0008C0
:1000B0005D7F00085D7F0008097C00085D7F000807
:1000C0005D7F00085D7F00085D7F00085D7F0008A0
:1000D0005D7F0008657D0008717D00085D7F000878
:1000E000AD7D00085D7F00085D7F00085D7F000832
:1000F0005D7F00085D7F00085D7F00085D7F000870
:10010000000000005D7F00085D7F00085D7F000843
:1001100000000000000000005D7F00085D7F000817
:100120007D7D00085D7F00085D7F00085D7F000821
:100130005D7F00085D7F00085D7F00085D7F00082F
:100140005D7F00085D7F00085D7F00085D7F00081F
:100150005D7F00085D7F00085D7F00085D7F00080F
:100160005D7F00085D7F00080000000000000000C7
:10017000000000000000000000000000000000007F
:100180005D7F00085D7F00080000000000000000A7
:100190005D7F00085D7F0008000000000000000097
:1001A000000000000000000000000000000000004F
:1001B0000000000000000000000000005D7F00085B
:0401C0005D7F000857
:1001D00010B5054C237833B9044B13B10448AFF381
:1001E00000800123237010BD60000020000000008B
:1001F000F08A000808B5034B1BB103490348AFF36D
:10020000008008BD0000000064000020F08A0008A3
:1002100010F8012B11F8013B012A28BF9A42F7D0B0
:10022000D01A7047034613F8012B002AFBD1181A85
:1002300001387047000000000000000000000000CE
:1002400001F0FF01102A2BDB10F0070F08D010F887
:10025000013B013A8B422DD010F0070F42B3F6D18B
:10026000F0B441EA012141EA014122F007047FF0A4
:1002700000070023F0E80256083C85EA010586EAFB
:10028000010685FA47F5A3FA87F586FA47F6A5FA37
:1002900087F68EB9EED1F0BC01F0FF0102F0070243
:1002A00032B110F8013B013A83EA010313B1F8D1EE
:1002B0000020704701387047002D06BF35460338CF
:1002C000073815F0010F07D1013015F4807F02BF08
:1002D000013015F4C03F0130F0BC0138704700BF59
:1002E0007BB972B90029BEBF00204FF0004106E083
:1002F00008BF00281CBF6FF000414FF0FF3000F036
:10030000BBB9ADF1080C6DE904CE002909DB002B67
:100310001ADB00F04DF8DDF804E0DDE9022304B05B
:100320007047404261EB4101002B1BDB00F040F8BD
:10033000DDF804E0DDE9022304B0404261EB410155
:10034000524263EB43037047524263EB430300F0B6
:100350002FF8DDF804E0DDE9022304B0404261EB50
:1003600041017047524263EB430300F021F8DDF88E
:1003700004E0DDE9022304B0524263EB430370471B
:1003800053B94AB9002908BF00281CBF4FF0FF31FC
:100390004FF0FF3000F070B9ADF1080C6DE904CEFC
:1003A00000F006F8DDF804E0DDE9022304B0704750
:1003B0002DE9F047089E0D4604460F46002B4AD112
:1003C0008A42944665D9B2FA82F343B102FA03FC39
:1003D000C3F120029F4020FA02F217439C404FEAEB
:1003E0001C4E1FFA8CF5B7FBFEF1220C0EFB1177A9
:1003F00042EA074201FB05F090420AD91CEB0202D7
:1004000001F1FF3780F01C81904240F219810239DE
:100410006244121AA4B2B2FBFEF00EFB102244EAB0
:10042000024400FB05F5A5420AD91CEB040400F1C7
:10043000FF3280F00781A54240F204816444023813
:1004400040EA0140641B00211EB1DC400023C6E9E4
:100450000043BDE8F0878B4208D9002E00F0ED8004
:100460000021C6E900050846BDE8F087B3FA83F12C
:10047000002949D1AB4202D3824200F2F880841AAB
:1004800065EB030201201746002EE2D0C6E90047C3
:10049000DFE702B9FFDEB2FA82F3002B40F0908072
:1004A0008A1A4FEA1C471FFA8CFE0121B2FBF7F5AE
:1004B00007FB1520220C42EA00420EFB05F0904299
:1004C00008D91CEB020205F1FF3802D2904200F27B
:1004D000CB804546121AA4B2B2FBF7F007FB1022FC
:1004E00044EA02440EFB00FEA64508D91CEB0404B6
:1004F00000F1FF3202D2A64500F2BB801046A4EB09
:100500000E0440EA05409FE7C1F120078B4022FA24
:1005100007FC4CEA030C05FA01F420FA07F3FD404E
:100520004FEA1C492343B5FBF9F81FFA8CFE09FB7F
:1005300018551C0C44EA054408FB0EF5A54202FAC6
:1005400001F200FA01F00BD91CEB040408F1FF3AA8
:1005500080F08880A54240F28580A8F102086444BA
:10056000641B9DB2B4FBF9F309FB134445EA044450
:1005700003FB0EFEA64508D91CEB040403F1FF356E
:100580006CD2A6456AD9023B644443EA0843A3FB04
:100590000295A4EB0E04AC42C846AE4656D353D0E7
:1005A00056B1B0EB080264EB0E0404FA07F7CA4038
:1005B000CC401743C6E9007418460021BDE8F08717
:1005C000C3F1200102FA03FC20FA01F225FA01F13D
:1005D0009D402A434FEA1C471FFA8CFEB1FBF7F0FF
:1005E00007FB1015110C41EA054100FB0EF58D4289
:1005F00004FA03F408D91CEB010100F1FF382FD2F3
:100600008D422DD902386144491B92B2B1FBF7F5F6
:1006100007FB151142EA014205FB0EF1914208D990
:100620001CEB020205F1FF3816D2914214D9023DAB
:100630006244521A45EA004138E73146304608E73D
:100640003946E6E61046FBE64845A9D2B9EB020872
:1006500065EB0C0E013BA3E74546EAE72B4694E722
:100660004046D1E7D0467BE7023D624432E7084688
:100670000AE76444023842E7704700BF10B50446F9
:100680000E4B1A784FF47A73B3FBF2F30C4A1068EE
:10069000B0FBF3F000F0AEF868B90F2C01D90120DF
:1006A0000AE0002221464FF0FF3000F05DF8034BD6
:1006B0005C60002000E0012010BD00BF00000020B1
:1006C0000C00002008B50B4B1A6842F400721A6047
:1006D0001A6842F480621A601A6842F480721A60E2
:1006E000032000F02FF80020FFF7C8FF06F0FEFF00
:1006F000002008BD003C0240034A1168034B1B78F0
:100700000B441360704700BF7C00002000000020F5
:10071000014B1868704700BF7C00002038B50446C4
:10072000FFF7F6FF0546B4F1FF3F02D0044B1B78FC
:100730001C44FFF7EDFF401BA042FAD338BD00BFB9
:1007400000000020074AD36823F4E0631B041B0C5D
:10075000000200F4E060034343F0BF6343F400335E
:10076000D360704700ED00E000B5194BDB68C3F3C0
:100770000223C3F1070CBCF1040F28BF4FF0040C97
:1007800003F1040EBEF1060F18D9033B4FF0FF3EF4
:100790000EFA0CFC21EA0C0199400EFA03FE22EA43
:1007A0000E020A4300280BDB1201D2B200F16040B6
:1007B00000F5614080F800235DF804FB0023E5E7C5
:1007C00000F00F001201D2B2024B1A54F4E700BF3E
:1007D00000ED00E014ED00E0002807DB00F01F0250
:1007E000400901239340024A42F82030704700BF7D
:1007F00000E100E00138B0F1807F0BD24FF0E02340
:100800005861054AF02182F82310002098610722E0
:100810001A6170470120704700ED00E030B40568B0
:100820002C6824F480242C60046863608368402B67
:1008300005D0036899600368DA6030BC70470368CC
:100840009A600368D960F8E710B40368D9B2103928
:100850000C4AA2FB014212090B4CA25CC2655F2943
:1008600009D923F47F7323F0030304338365806D78
:100870005DF8044B704723F47F7323F00303836513
:10088000F5E700BFABAAAAAA088B0008836A8269B1
:1008900092B9012B0AD0022B02D00BB10020704775
:1008A000C36A13F0807F28D100207047C36AB3F178
:1008B000C07F24D000207047B2F5005F09D0022B22
:1008C00025D9032B25D1C36A13F0807F23D10020C3
:1008D0007047032B03D8DFE803F01404140A002048
:1008E0007047C36A13F0807F0DD100207047C36A40
:1008F000B3F1C07F09D0002070470120704701206C
:100900007047012070470120704701207047012087
:1009100070470020704701207047000070B5044602
:10092000FFF7F6FE002C53D00546002384F8343040
:10093000022384F835302268136823F00103136022
:1009400023681A6812F0010F0AD0FFF7E1FE431B7B
:10095000022BF5D920236365032084F8350070BD90
:100960001A681C4911406268A0680243E0680243AB
:100970002069024360690243A0690243E0690243BF
:10098000206A02430A431A602668756925F0070544
:10099000636A1D43042B07D1A36A1D43E36A1BB19D
:1009A0002046FFF773FF68B975612046FFF74CFFDB
:1009B000E26D3F239340836000206065012384F84B
:1009C0003530CCE740236365012084F83500C6E765
:1009D0000120C4E73F8010F070B50446FFF798FE91
:1009E000002C5BD00546002384F83430022384F8C1
:1009F00035302268136823F00103136023681A68F6
:100A000012F0010F0AD0FFF783FE431B052BF5D927
:100A100020236365032084F8350070BD1A682049DF
:100A200011406268A0680243E06802432069024303
:100A300060690243A0690243E0690243206A0243FD
:100A40000A43616A04291ED01A602668756925F078
:100A50000705636A1D43042B07D1A36A1D43E36A9C
:100A60001BB12046FFF712FF90B975612046FFF7D2
:100A7000EBFEE26D3F23934083600020606501231D
:100A800084F83530C9E7E16A206B01430A43DBE7AC
:100A900040236365012084F83500BEE70120BCE7F0
:100AA0003F8010F070B50446856D90F83400012841
:100AB00024D0012084F8340094F83500C0B2012815
:100AC00004D0002384F83430022070BD022084F862
:100AD0003500002666652046FFF7A0FEE26D3F2345
:100AE0009340AB602268136843F0160313602268DA
:100AF000136843F0010313603046E6E70220E4E7A1
:100B000070B50446866D3568C26D102393402B4244
:100B10002FD00268126812F0080F1DD0B36003686E
:100B20001A6812F4802F0BD01B6813F4002F03D126
:100B3000036C8BB198470FE0836C6BB198470BE067
:100B40001A6812F4807F03D11A6822F008021A6032
:100B5000236C0BB1204698473B4B5B684BB903F1C4
:100B6000804303F502334FF080429A61364B0122F5
:100B70005A74E26D202393402B4260D022681268A1
:100B800012F0100F4FD0B36094F83530DBB2052B64
:100B90000ED023681A6812F4802F32D01B6813F429
:100BA000002F29D1636C002B3DD0204698473AE0B6
:100BB0002268136823F0160313602268536923F038
:100BC00080035361236C9BB12268136823F00803F0
:100BD0001360E26D3F239340B360002384F8343008
:100BE000012384F83530236D4BB32046984726E027
:100BF000A36C002BE8D1ECE7E36BA3B12046984748
:100C000011E01A6812F4807F09D11A6822F01002EC
:100C10001A60002384F83430012384F83530E36B04
:100C20000BB120469847084B5B7C012B08D1064B43
:100C300000225A741A74054A13680133136070BD98
:100C400006F0D2FCF7E700BFC01F0020A03E022044
:100C500010B5826D11682023C46DA3400B425AD099
:100C60003E4B1021996103681B6813F0100F4ED0A2
:100C7000C16D20238B40936090F83530DBB2052B9B
:100C80000DD003681A6812F4802F2FD01B6813F45C
:100C9000002F27D1436C002B39D0984737E00168EB
:100CA0000B6823F016030B6001684B6923F0800387
:100CB0004B61036C93B101680B6823F008030B6070
:100CC000C16D3F238B409360002380F834300123B3
:100CD00080F83530036DF3B198471CE0836C002B2E
:100CE000E9D1EDE7C36B93B1984710E01A6812F4AD
:100CF000807F09D11A6822F010021A60002380F860
:100D00003430012380F83530C36B03B19847144B5E
:100D10001B78012B00D010BD124B1878122811D966
:100D200003F0B2FA104B02221A700E4B00221A7016
:100D30004FF4AC710D4806F07BFC0D4A136801338B
:100D40001360E8E703F0A0FA03F056FA054C2078A8
:100D500003F02CFA237801332370DCE70000024013
:100D6000601B0020611B0020BA1F0020001C002017
:100D7000B01F002038B5846D2268C16D08238B40F8
:100D8000134210D00368196811F0040F0BD01968D2
:100D900021F004011960C16D08238B40A360436DED
:100DA00043F001034365C16D20238B40134266D09D
:100DB0000268126812F0100F4CD0A36090F8353022
:100DC000DBB2052B0DD003681A6812F4802F30D0E7
:100DD0001B6813F4002F28D1436C002B3AD098479E
:100DE00038E00268136823F0160313600268536941
:100DF00023F080035361036C9BB10268136823F0F6
:100E000008031360C26D3F239340A360002380F862
:100E10003430012380F83530036D002B2FD09847F4
:100E20002DE0836C002BE8D1ECE7C36B93B19847BE
:100E300010E01A6812F4807F09D11A6822F01002BB
:100E40001A60002380F83430012380F83530C36BFA
:100E500003B19847184B1B78012B11D0174B4FF457
:100E600000429A61164B01221A7003F09DFF06F0B2
:100E700013F803F0C1F9134B187803F097F938BD54
:100E80000D4B00221A7001230F4A13700C4A137085
:100E90000A4A93610D4D29460D4803F071FD0D4C32
:100EA0000D4B22462946072003F084FD204603F01F
:100EB00083FE05F099FEE2E7BB1F00200000024020
:100EC000BE1F0020611B0020BD1F0020BC1B002096
:100ED000651B0020C81B0020941B002000230F2B43
:100EE00000F2BD80F0B583B09DE085685E0003240C
:100EF000B44025EA0405CC68B4402C4384604468BF
:100F000024EA02044A68C2F300129A402243426073
:100F1000C5684FEA430E032202FA0EF2D44325EAD3
:100F200002058A6802FA0EF22A43C2604A68022A5F
:100F300001D0122A0FD1DD08083550F8257003F0D2
:100F40000706B6000F22B24027EA02070A69B2403C
:100F50003A4340F82520026814404A6802F0030230
:100F600002FA0EF2224302604A6812F0805F57D004
:100F7000002201923A4A546C44F480445464526C06
:100F800002F480420192019A9C08A51C354A52F84D
:100F9000256003F00305AD000F22AA4026EA0206F1
:100FA000314A904255D002F58062904253D002F50A
:100FB000806290424BD00722AA4032430234294D2E
:100FC00045F82420294A14686FEA0C0224EA0C052B
:100FD0004E6816F4803F01D04CEA0405234C25608E
:100FE000646802EA04054E6816F4003F01D04CEA3A
:100FF00004051E4C6560A46802EA04054E6816F4F8
:10100000801F01D04CEA0405184CA560E46822401A
:101010004D6815F4001F01D04CEA0402134CE26045
:1010200001330F2B19D801229A400C6804EA020CF4
:1010300032EA0404F4D14C68651E012D7FF655AFE9
:10104000112C3FF452AF122C7FF462AF4DE7022215
:10105000B2E70022B0E70122AEE703B0F0BD70476F
:10106000003802400038014000000240003C0140CE
:101070007047000008B5054B5B69034200D108BD0D
:10108000024B5861FFF7F4FFF9E700BF003C014055
:1010900003685A6912F4806F01D1002070476FF421
:1010A00080625A6100230363202280F83D2080F88B
:1010B0003E30026C42F00402026480F83C300120B1
:1010C00070472DE9F04107460D4690461E4624E044
:1010D000FFF71EFB069BC01AB04200D8EEB90023F2
:1010E0003B63202287F83D2087F83E303A6C42F07F
:1010F00020023A6487F83C3001201EE03B689C697E
:1011000025EA040C1FFA8CFCBCFA8CFC4FEA5C1C30
:10111000E04511D1B6F1FF3FDAD1C5F30743012B0A
:10112000ECD13B685B6925EA030C1FFA8CFCBCFA26
:101130008CFC4FEA5C1CEBE70020BDE8F0812DE958
:10114000F04105460E46174698463DE01A6842F4BF
:1011500000721A602B686FF480625A6100232B635F
:10116000202285F83D2085F83E302A6C42F00402AA
:101170002A6485F83C30012034E0FFF7C9FAA0EB7F
:101180000800B84200D8FFB900232B63202285F85D
:101190003D2085F83E302A6C42F020022A6485F812
:1011A0003C3001201EE02B689C6926EA0404A4B2AE
:1011B000003C18BF0124A4B12B685A6912F4806F57
:1011C000C4D1B7F1FF3FD8D1C6F30743012BEAD111
:1011D0002B685C6926EA0404A4B2003C18BF012411
:1011E000E9E70020BDE8F08170B504460D461646DB
:1011F00023685B6913F0800F1CD12046FFF748FF7E
:10120000D0B9B5F1FF3FF3D0FFF782FA801BA842B7
:1012100001D8002DECD100232363202284F83D2047
:1012200084F83E30226C42F02002226484F83C3084
:10123000012000E0002070BD0120FCE72DE9F04313
:1012400085B004460D4691461F46DDF830800D9E60
:101250000368196841F480711960009643460022C2
:101260004FF00111FFF72DFF60B9236805F0FE056F
:101270001D613346424626492046FFF760FF68B1AC
:10128000012008E023681B6813F4807F02D04FF42C
:1012900000732364032005B0BDE8F08300230393AB
:1012A00023685A6903929B690393039B3246414624
:1012B0002046FFF799FF30B9012F0FD123685FFA5D
:1012C00089F61E61E7E7236C042B01D00120E2E7D9
:1012D0002268136843F400731360F7E723684FEA4A
:1012E00019221A61324641462046FFF77DFF20B998
:1012F00023685FFA89F61E61CDE7236C042B01D0C9
:101300000120C8E72268136843F400731360F7E70D
:10131000020001002DE9F04784B004460D46164650
:1013200099460C9FDDF834800268136843F48063AB
:1013300013600368196841F480711960CDF800806A
:101340003B4600224FF00111FFF7BBFE70B95FFA78
:1013500085FA236805F0FE051D6143463A4641497A
:101360002046FFF7ECFE68B1012008E023681B6807
:1013700013F4807F02D04FF400732364032004B081
:10138000BDE8F0870023039323685A6903929B69A1
:101390000393039B424639462046FFF725FF80B959
:1013A000B9F1010F18D12368F6B21E6142463946E1
:1013B0002046FFF719FF68B3236C042B24D00120CB
:1013C000DDE7236C042B01D00120D8E722681368E5
:1013D00043F400731360F7E72368320A1A61424648
:1013E00039462046FFF700FF18B92368F6B21E61A0
:1013F000DCE7236C042B01D00120C0E722681368CE
:1014000043F400731360F7E72268136843F4007332
:101410001360D4E72268136843F480731360CDF837
:1014200000803B4600224FF001112046FFF749FEA5
:1014300068B922684AF00103136143463A460949F4
:101440002046FFF77CFE002899D0012097E723680B
:101450001B6813F4807F02D04FF4007323640320D1
:101460008DE700BF0200010070B504460D46164628
:1014700023685B6913F0040F1CD12046FFF708FEB8
:10148000D0B9B5F1FF3FF3D0FFF742F9801BA84276
:1014900001D8002DECD100232363202284F83D20C5
:1014A00084F83E30226C42F02002226484F83C3002
:1014B000012000E0002070BD0120FCE770B505466A
:1014C0000C4616462B68596911F0400F29D159690D
:1014D00011F0100F15D1FFF71BF9801BA04201D8A6
:1014E000002CEFD100232B63202285F83D2085F8C6
:1014F0003E302A6C42F020022A6485F83C300120FC
:1015000070BD6FF010025A6100232B63202285F812
:101510003D2085F83E302A6C2A6485F83C30012055
:10152000EEE70020ECE70000002800F0CC8070B56A
:10153000044690F83D30002B77D0242384F83D30CA
:101540002268136823F0010313602268136843F4D0
:10155000004313602268136823F40043136000F013
:1015600009FC62685A4B9A4264D85A4B98428CBF25
:1015700000230123002B40F0A8805749A1FB003134
:101580008B0C25686A6822F03F0242EA91426A6049
:1015900021680A6A22F03F0266684D4DAE424FD87C
:1015A000013313430B622168CA6922F44F4222F0CF
:1015B000FF026568464B9D424CD8431E6D00B3FB4D
:1015C000F5F3013340F6FC70034278D0C3F30B030C
:1015D0001A43CA6121680B6823F0C003E269206ADC
:1015E000024313430B6021688B6823F4034323F009
:1015F000FF032269E068024313438B602168CB68D4
:1016000023F0FF036269A06902431343CB602268A1
:10161000136843F00103136000202064202384F842
:101620003D30206384F83E0070BD80F83C3006F009
:1016300079F882E7294B98428CBF0023012399E770
:101640004FF4967505FB03F3254DA5FB03539B094A
:101650000133A6E7A668BEB9431E05EB450CB3FBF4
:10166000FCF30133C3F30B03B3FA83F35B0943BB0E
:10167000C6B9431E05EB4505B3FBF5F30133C3F3D0
:101680000B0343F40043A3E7431E05EB850C0CEB6F
:101690008C0CB3FBFCF30133C3F30B03B3FA83F3FA
:1016A0005B09E4E7431E05EB850505EB8505B3FB08
:1016B000F5F30133C3F30B0343F4404388E70423FA
:1016C00086E7012384E7012070470120ACE700BFD3
:1016D000A08601007F841E0083DE1B43FF083D00BF
:1016E000D34D62102DE9F04383B004460F46904677
:1016F00099460C9EFFF70CF8054694F83D00C0B2E1
:10170000202803D0022003B0BDE8F0830095192300
:1017100001224B492046FFF7D4FC002840F0898085
:1017200094F83C30012B00F08680012384F83C3093
:1017300023681A6812F0010F03D11A6842F00102FF
:101740001A602268136823F400631360212384F86D
:101750003D30402384F83E30002323640A9B6362BB
:10176000BDF82C306385638D2385364BE36201958C
:1017700000964B46424639462046FFF75FFD00285B
:101780005BD1238D002B35D02A4631462046FFF70A
:101790002BFD20BB626A236812781A61626A531CAF
:1017A0006362218D013989B22185638D9BB2013B32
:1017B0009BB263852368586910F0040FE1D00029BB
:1017C000DFD052781A61636A01336362238D013B73
:1017D0002385638D9BB2013B9BB26385D1E7236C6C
:1017E000042B01D001208EE72268136843F40073B4
:1017F0001360F7E72A4631462046FFF735FE50B121
:10180000236C042B01D001207DE72268136843F488
:1018100000731360F7E72268136843F400731360E2
:10182000202384F83D30002384F83E3084F83C3097
:1018300069E7022067E7022065E7012063E700BF50
:10184000020010000000FFFF2DE9F04387B00446BE
:101850000F4690469946109EFEF75AFF054694F8AB
:101860003D00C0B2202804D00227384607B0BDE8AA
:10187000F08300951923012288492046FFF721FCB7
:10188000002840F0438194F83C30012B00F0408167
:10189000012384F83C3023681A6812F0010F03D149
:1018A0001A6842F001021A602268136823F4006388
:1018B0001360222384F83D30402384F83E30002317
:1018C00023640E9B6362BDF83C306385638D238582
:1018D000734BE362019500964B46424639462046DB
:1018E000FFF718FD0746002840F01481238D5BB9EF
:1018F000029323685A6902929A690292029A1A68BC
:1019000042F400721A6075E0012B0AD0022B1AD043
:101910000023059323685A6905929B690593059BEB
:1019200068E02268136823F4806313600023039344
:1019300023685A6903929A690392039A1A6842F4D7
:1019400000721A6056E02268136823F48063136003
:101950002268136843F40063136000230493236830
:101960005A6904929B690493049B43E02A463146DA
:101970002046FFF7A3FD002840F0CE8023681A69B7
:10198000636A1A70636A01336362238D013B2385A6
:10199000638D9BB2013B9BB263852BE00095334680
:1019A000002240492046FFF78CFB002840F0B6801B
:1019B0002268136843F40073136023681A69636A2A
:1019C0001A70626A531C6362238D013B2385638D09
:1019D0009BB2013B9BB2638523681B695370636AAA
:1019E00001336362238D013B2385638D9BB2013BF1
:1019F0009BB26385238D002B7FD0032B54D8012B02
:101A0000B4D0022BCAD00095334600222549204687
:101A1000FFF757FB002840F083802268136823F407
:101A20008063136023681A69636A1A70636A0133FA
:101A30006362238D013B2385638D9BB2013B9BB287
:101A4000638500953346002216492046FFF739FB8F
:101A5000002867D12268136843F400731360236879
:101A60001A69636A1A70626A531C6362238D013BB0
:101A70002385638D9BB2013B9BB2638523681B6901
:101A80005370636A01336362238D013B2385638D49
:101A90009BB2013B9BB26385ACE700BF0200100024
:101AA0000000FFFF040001002A4631462046FFF7F0
:101AB00005FD002838D123681A69636A1A70626AC2
:101AC000531C6362238D013B2385638D9BB2013BD5
:101AD0009BB263852368596911F0040F8AD01B6992
:101AE0005370636A01336362238D013B2385638DE9
:101AF0009BB2013B9BB263857CE7202384F83D3099
:101B0000002384F83E3084F83C30AEE60227ACE691
:101B10000227AAE60127A8E60127A6E60127A4E6F0
:101B20000127A2E60127A0E601279EE608B5334B70
:101B30009B6803F00C03042B5BD0082B5BD12F4B6D
:101B40005A6802F03F025B6813F4800F2CD02B4BD5
:101B50005868C0F388104FEA401CBCEB000C6EEBD9
:101B60000E0E4FEA8E1343EA9C634FEA8C11B1EBE1
:101B70000C0163EB0E03DB0043EA5173C90011EB68
:101B8000000C43F10003190200234FEA0C2041EA44
:101B90001C61FEF7F5FB194B5B68C3F3014301338E
:101BA0005B00B0FBF3F027E0144B5868C0F38810DB
:101BB0004FEA401CBCEB000C6EEB0E0E4FEA8E138E
:101BC00043EA9C634FEA8C11B1EB0C0163EB0E030B
:101BD000DB0043EA5173C90011EB000C43F1000331
:101BE000990200234FEA8C2041EA9C51FEF7C8FB82
:101BF000D1E7034800E0034808BD00BF00380240B9
:101C000000093D000024F400002800F09B8070B51E
:101C10000D4604464F4B1B6803F00F038B4208D25E
:101C2000CBB24C4A1370136803F00F038B4240F0A1
:101C30008B80236813F0020F17D013F0040F04D029
:101C4000454A936843F4E0539360236813F0080F08
:101C500004D0414A936843F4604393603E4A9368DA
:101C600023F0F003A1680B439360236813F0010F86
:101C700032D06368012B21D09A1E012A25D9364A19
:101C8000126812F0020F61D033498A6822F0030211
:101C900013438B60FEF73CFD06462F4B9B6803F019
:101CA0000C036268B3EB820F16D0FEF731FD801B88
:101CB00041F288339842F0D9032042E0264A126864
:101CC00012F4003FE0D101203BE0234A126812F0F9
:101CD000007FD9D1012034E01E4B1B6803F00F03B5
:101CE000AB4207D9EAB21B4B1A701B6803F00F0313
:101CF000AB422DD1236813F0040F06D0164A936827
:101D000023F4E053E1680B439360236813F0080F5A
:101D100007D0114A936823F46043216943EAC10361
:101D20009360FFF703FF0C4B9B68C3F303130B4A4D
:101D3000D35CD8400A4B18600A4B1868FEF79EFC2B
:101D4000002070BD012070470120FAE70120F8E76C
:101D50000120F6E7003C02400038024050940008A1
:101D60000C00002004000020014B1868704700BFE1
:101D70000C00002008B5FFF7F7FF044B9B68C3F386
:101D80008223034AD35CD84008BD00BF003802401C
:101D90006094000808B5FFF7E7FF044B9B68C3F3A6
:101DA0004233034AD35CD84008BD00BF003802402C
:101DB0006094000870B582B00446036813F0010F08
:101DC0003BD09F4B9B6803F00C03042B2CD09C4B07
:101DD0009B6803F00C03082B21D06368B3F5803FA8
:101DE0004FD0B3F5A02F52D0954B1A6822F4803211
:101DF0001A601A6822F480221A606368002B50D09F
:101E0000FEF786FC05468E4B1B6813F4003F14D189
:101E1000FEF77EFC401B6428F5D903208BE1884B3C
:101E20005B6813F4800FD8D0854B1B6813F4003F18
:101E300003D06368002B00F07981236813F0020F50
:101E400054D07F4B9B6813F00C0F3ED07C4B9B68AB
:101E500003F00C03082B33D0E368002B68D0794BD8
:101E600001221A60FEF754FC0546754B1B6813F0FF
:101E7000020F54D1FEF74CFC401B0228F5D9032079
:101E800059E16F4A136843F480331360B5E76C4B34
:101E90001A6842F480221A601A6842F480321A608A
:101EA000ABE7FEF735FC0546654B1B6813F4003FB6
:101EB000C3D0FEF72DFC401B6428F5D903203AE17E
:101EC0005F4B5B6813F4800FC6D15D4B1B6813F04A
:101ED000020F03D0E368012B40F02A81584A1368AF
:101EE00023F0F803216943EAC1031360236813F068
:101EF000080F42D063696BB3524B0122C3F8802EA6
:101F0000FEF706FC05464E4B5B6F13F0020F34D113
:101F1000FEF7FEFB401B0228F5D903200BE1484ADF
:101F2000136823F0F803216943EAC1031360DDE776
:101F3000444B00221A60FEF7EBFB0546404B1B6842
:101F400013F0020FD2D0FEF7E3FB401B0228F5D9B5
:101F50000320F0E03B4B0022C3F8802EFEF7D8FBB5
:101F60000546374B5B6F13F0020F06D0FEF7D0FB30
:101F7000401B0228F5D90320DDE0236813F0040F8D
:101F800076D02F4B1B6C13F0805F33D1002301936D
:101F90002B4B1A6C42F080521A641B6C03F0805376
:101FA0000193019B0125284B1B6813F4807F23D0EC
:101FB000A368012B34D0052B38D0214B1A6F22F0A7
:101FC00001021A671A6F22F004021A67A368002B35
:101FD0003CD0FEF79DFB0646194B1B6F13F0020F1A
:101FE00045D1FEF795FB801B41F288339842F3D927
:101FF0000320A0E00025D6E7134A136843F480735A
:102000001360FEF785FB06460F4B1B6813F4807FB9
:10201000CED1FEF77DFB801B0228F5D903208AE094
:10202000074A136F43F001031367CFE7044B1A6F9E
:1020300042F004021A671A6F42F001021A67C5E7FC
:10204000003802400000474200700040FEF760FB8D
:1020500006463B4B1B6F13F0020F08D0FEF758FBF0
:10206000801B41F288339842F3D9032063E0E5B93D
:10207000A369002B5ED0324A926802F00C02082A53
:102080005BD0022B17D02F4B00221A66FEF740FBC5
:1020900004462B4B1B6813F0007F45D0FEF738FB3E
:1020A000001B0228F5D9032045E0254A136C23F0D4
:1020B00080531364DCE7234B00221A66FEF728FBEB
:1020C00005461F4B1B6813F0007F06D0FEF720FB70
:1020D000401B0228F5D903202DE0E369226A13434F
:1020E000626A43EA8213A26A5208013A43EA02434F
:1020F000E26A43EA0263226B43EA0273104A5360C6
:10210000104B01221A66FEF703FB04460C4B1B68BA
:1021100013F0007F06D1FEF7FBFA001B0228F5D969
:10212000032008E0002006E0002004E0012002E097
:10213000012000E0002002B070BD0120FBE700BFDD
:1021400000380240000047422DE9F041064688462B
:1021500017461D463468A46838EA04040CBF0124FD
:102160000024BC4237D0B5F1FF3FF3D0FEF7D0FAE0
:10217000069BC01AA84201D2002DEBD132685368E9
:1021800023F0E00353607368B3F5827F0BD0B36A2A
:10219000B3F5005F14D0012386F85130002386F890
:1021A0005030032018E0B368B3F5004F02D0B3F508
:1021B000806FECD13268136823F040031360E6E7C8
:1021C0003268136823F4005313603268136843F4D1
:1021D00000531360DFE70020BDE8F08110B584B044
:1021E0000446164B1868164BA3FB0030400D4FF405
:1021F0007A7303FB00F003906368B3F5827F0BD022
:10220000039BBBB1039B013B039323689B6813F0C3
:10221000800FF5D100200EE000920B4600228021B5
:102220002046FFF791FF30B1636D43F020036365F3
:10223000032000E0002004B010BD00BF0C0000200F
:10224000819F5E1610B582B004460B464168B1F519
:10225000827F14D06168B1F5827F2AD1A168B1F57F
:10226000806F19D00092002280212046FFF76CFF7A
:1022700030B3636D43F020036365032020E0816881
:10228000B1F5004F02D0B1F5806FE3D1206801684D
:1022900021F040010160DDE700920022012120468B
:1022A000FFF752FF60B1636D43F0200363650320C5
:1022B00006E00092002201212046FFF745FF08B901
:1022C00002B010BD636D43F0200363650320F7E7A0
:1022D00000283BD010B504460023836290F85130AB
:1022E000002B2ED0022384F851302268136823F08B
:1022F000400313606368A2681343E26813432269D2
:10230000134362691343A26902F400721343E26942
:102310001343226A1343A16A22680B431360638B41
:1023200003F00403616A22680B4353602268D36997
:1023300023F40063D36100206065012384F85130E9
:1023400010BD80F8503005F03BFACBE70120704714
:102350002DE9F04383B091461F460A9D8D4B4FF403
:1023600080329A6190F85030012B00F011810446C0
:102370008846012380F85030FEF7CAF9064694F8E3
:102380005130DBB26268012B0AD0B2F5827F40F097
:10239000E380A268002A40F0EB80042B40F0EA8042
:1023A000B8F1000F00F0E880B9F1000F00F0E6800E
:1023B000002F00F0E58094F85130DBB2042B02D0FE
:1023C000052384F8513000236365C4F83890E7870B
:1023D000A787C4F83080E786A786236463642368F0
:1023E0001A6812F0400F03D11A6842F040021A60D6
:1023F000E368B3F5006F11D063680BB1012F0BD107
:10240000226B236812781A73236B01332363E38EE4
:102410009BB2013B9BB2E38601276BE063680BB183
:10242000012F0BD1226B23681288DA60236B0233F1
:102430002363E38E9BB2013B9BB2E38601271CE042
:1024400023689A6812F0010F0ED0E28F92B25AB14F
:10245000DA68A36B1A80A36B0233A363E38F9BB28A
:10246000013B9BB2E3870127FEF752F9801BA8428C
:1024700003D3B5F1FF3F40F08580E38E9BB21BB9DB
:10248000E38F9BB2002B53D023689A6812F0020F9F
:10249000D6D0E28E92B2002AD2D0002FD0D0226BBA
:1024A0001288DA60236B02332363E38E9BB2013B15
:1024B0009BB2E3860027C3E723689A6812F0010FF6
:1024C0000ED0E28F92B25AB1DA68A36B1A70A36B86
:1024D0000133A363E38F9BB2013B9BB2E3870127E8
:1024E000FEF716F9831BAB4202D3B5F1FF3F4BD188
:1024F000002D4BD0E38E9BB213B9E38F9BB2BBB1DF
:1025000023689A6812F0020FD6D0E28E92B2002AA7
:10251000D2D0002FD0D0226B12781A73236B0133E4
:102520002363E38E9BB2013B9BB2E3860027C3E7A4
:10253000324629462046FFF751FE48B9A36863B9E1
:1025400001932368DA6801929B680193019B04E080
:1025500020236365012000E00220012384F851302C
:10256000002284F850200B4A936103B0BDE8F08349
:102570000220F2E70220F0E70120EEE70120ECE77D
:102580000120EAE70320E8E70320E6E70320E4E789
:102590000220EAE7000002402DE9F04383B01F4625
:1025A0000A9D90F85030012B00F0108104468846B7
:1025B0009146012380F85030FEF7AAF8064694F8B9
:1025C0005130DBB26268012B0AD0B2F5827F40F055
:1025D000E380A268002A40F0E980042B40F0E88004
:1025E000B8F1000F00F0E680B9F1000F00F0E480D0
:1025F000002F00F0E38094F85130DBB2042B02D0BE
:10260000052384F8513000236365C4F83890E787C8
:10261000A787C4F83080E786A786236463642368AD
:102620001A6812F0400F03D11A6842F040021A6093
:10263000E368B3F5006F11D063680BB1012F0BD1C4
:10264000226B236812781A73236B01332363E38EA2
:102650009BB2013B9BB2E38601276BE063680BB141
:10266000012F0BD1226B23681288DA60236B0233AF
:102670002363E38E9BB2013B9BB2E38601271CE000
:1026800023689A6812F0010F0ED0E28F92B25AB10D
:10269000DA68A36B1A80A36B0233A363E38F9BB248
:1026A000013B9BB2E3870127FEF732F8801BA8426B
:1026B00003D3B5F1FF3F40F08380E38E9BB21BB99B
:1026C000E38F9BB2002B53D023689A6812F0020F5D
:1026D000D6D0E28E92B2002AD2D0002FD0D0226B78
:1026E0001288DA60236B02332363E38E9BB2013BD3
:1026F0009BB2E3860027C3E723689A6812F0010FB4
:102700000ED0E28F92B25AB1DA68A36B1A70A36B43
:102710000133A363E38F9BB2013B9BB2E3870127A5
:10272000FDF7F6FF831BAB4202D3B5F1FF3F49D162
:10273000002D49D0E38E9BB213B9E38F9BB2BBB19E
:1027400023689A6812F0020FD6D0E28E92B2002A65
:10275000D2D0002FD0D0226B12781A73236B0133A2
:102760002363E38E9BB2013B9BB2E3860027C3E762
:10277000324629462046FFF731FD48B9A36863B9C0
:1027800001932368DA6801929B680193019B04E03E
:1027900020236365012000E00220012384F85130EA
:1027A000002384F8503003B0BDE8F0830220F4E742
:1027B0000220F2E70120F0E70120EEE70120ECE73C
:1027C0000320EAE70320E8E70320E6E70220EAE740
:1027D0002DE9F04383B00446884691461D46406883
:1027E000B0F5827F38D094F85030012B00F0A980EA
:1027F000012384F85030FDF78BFF074694F85160B1
:10280000F6B2012E40F08A80B8F1000F00F0878008
:10281000B9F1000F00F08380042384F851300023C5
:102820006365C4F83880A4F83C90A4F83E90236314
:10283000A386E38623646364A368B3F5004F19D0CD
:1028400023681A6812F0400F03D11A6842F0400260
:102850001A60E368F3B13CE0A368002BC3D1042302
:1028600084F85130009513460A462046FFF794FE3F
:1028700006465AE02268136823F480431360DFE7BA
:10288000FDF746FFC01BA84202D3B5F1FF3F50D170
:10289000002D50D0E38F9BB2002B33D023689A6871
:1028A00012F0010FECD0A26B1B7B1370A36B0133F2
:1028B000A363E38F9BB2013B9BB2E387EAE7FDF79B
:1028C00027FFC01BA84202D3B5F1FF3F35D1002D31
:1028D00035D0E38F9BB2ABB123689A6812F0010F39
:1028E000EDD0DA68A36B1A80A36B0233A363B4F84C
:1028F0003EC01FFA8CFC0CF1FF3C1FFA8CFCA4F8C4
:102900003EC0E6E73A4629462046FFF79BFC08B161
:1029100020236365636D13B9002600E002260123BE
:1029200084F85130002384F85030304603B0BDE8BD
:10293000F0830326F3E70326F1E70326EFE70326F8
:10294000EDE70226F1E7000038B590F85030012B92
:102950005CD00446012380F8503090F85150EDB21D
:102960009D424DD100294CD0002A4AD0032380F843
:1029700051300023436501638286C28683634364CA
:1029800003648387C3878368B3F5004F2AD0A36CA1
:102990001F4A1A64A36C1F4ADA63A36C1E4ADA64E6
:1029A000A36C00221A652268E38E9BB20C32216B65
:1029B000A06CFEF777F80146D0B923681A6812F0C8
:1029C000400F03D11A6842F040021A60226853682F
:1029D00043F0200353602268536843F002035360BE
:1029E0000D460EE00268136843F480431360CEE79F
:1029F000636D43F010036365012384F8513000E0F8
:102A00000225002384F85030284638BD0225FBE714
:102A1000032E0008492E0008272E000838B504466A
:102A200090F85000012800F09280012084F85000B6
:102A300094F85100C0B26568012807D0B5F5827FCF
:102A40007CD1A568002D7ED104287ED194F8510058
:102A5000C0B2042802D0052084F85100002060652F
:102A60002163A386E386A263A387E387206460646F
:102A700094F85130DBB2042B1CD0E36C354A1A6455
:102A8000E36C354ADA63E36C344ADA64E36C0022BF
:102A90001A652168E38F9BB2A26B0C31E06CFEF7E4
:102AA00001F870B1636D43F010036365012084F891
:102AB000510044E0E36C2A4A1A64E36C294ADA6361
:102AC000E1E72268536843F001035360A26C0023DE
:102AD0001364A26CD363A26CD364A26C13652268E6
:102AE000E38E9BB20C32216BA06CFDF7DBFFE8B9E3
:102AF00023681A6812F0400F03D11A6842F04002AE
:102B00001A602268536843F020035360164B012279
:102B10001A70164B00221A70154B4FF480329A61CE
:102B20002268536843F00203536008E0636D43F08A
:102B300010036365012084F8510000E002200023A7
:102B400084F8503038BD0220F9E70220F7E7022070
:102B5000F8E700BF1B2E0008072F0008272E0008EB
:102B60000F2E0008B12E0008BB1F0020BE1F002042
:102B70000000024038B5044690F85000012800F0EB
:102B80008C80012084F8500094F85100C0B2656830
:102B9000012807D0B5F5827F76D1A568002D78D1C0
:102BA000042878D194F85100C0B2042802D005203E
:102BB00084F85100002060652163A386E386A26348
:102BC000A387E3872064606494F85130DBB2042B60
:102BD0001CD0E36C324A1A64E36C324ADA63E36C69
:102BE000314ADA64E36C00221A652168E38F9BB2F4
:102BF000A26B0C31E06CFDF755FF70B1636D43F0D3
:102C000010036365012084F851003EE0E36C274A1D
:102C10001A64E36C264ADA63E1E72268536843F0FA
:102C200001035360A26C00231364A26CD363A26CF3
:102C3000D364A26C13652268E38E9BB20C32216BC5
:102C4000A06CFDF72FFFB8B923681A6812F0400F87
:102C500003D11A6842F040021A602268536843F0B8
:102C600020035360134B4FF000429A61226853686F
:102C700043F00203536008E0636D43F010036365A3
:102C8000012084F8510000E00220002384F8503035
:102C900038BD0220F9E70220F7E70220F8E700BF7D
:102CA0001B2E0008072F0008272E00080F2E0008F3
:102CB000B12E00080000024038B5044690F85000DC
:102CC000012800F08C80012084F8500094F8510015
:102CD000C0B26568012807D0B5F5827F76D1A568B6
:102CE000002D78D1042878D194F85100C0B204287E
:102CF00002D0052084F85100002060652163A3867E
:102D0000E386A263A387E3872064606494F851306C
:102D1000DBB2042B1CD0E36C324A1A64E36C324AF7
:102D2000DA63E36C314ADA64E36C00221A652168E5
:102D3000E38F9BB2A26B0C31E06CFDF7B3FE70B178
:102D4000636D43F010036365012084F851003EE099
:102D5000E36C274A1A64E36C264ADA63E1E72268E7
:102D6000536843F001035360A26C00231364A26C08
:102D7000D363A26CD364A26C13652268E38E9BB20A
:102D80000C32216BA06CFDF78DFEB8B923681A6870
:102D900012F0400F03D11A6842F040021A60226814
:102DA000536843F020035360134B4FF480129A6131
:102DB0002268536843F00203536008E0636D43F0F8
:102DC00010036365012084F8510000E00220002315
:102DD00084F8503038BD0220F9E70220F7E70220DE
:102DE000F8E700BF1B2E0008072F0008272E000859
:102DF0000F2E0008B12E00080000024070477047F7
:102E0000704708B5806BFFF7FBFF08BD704708B53A
:102E1000806BFFF7FBFF08BD704708B5806BFFF7BD
:102E2000FBFF08BD704708B5806B0268536823F04C
:102E300003035360436D43F010034365012380F89F
:102E40005130FFF7EFFF08BD00B583B0836B026818
:102E5000126812F4807F19D119684A6822F02002A2
:102E60004A6019684A6822F002024A609A6832B9D8
:102E700001921A68D168019192680192019A002228
:102E8000DA86012283F851205A6D32B91A68074B4D
:102E90009A4206D003B05DF804FB1846FFF7C2FF64
:102EA000F8E70A2004F0EEF9F4E700BF003800402C
:102EB00038B50546846BFDF72BFC2B681B6813F4B3
:102EC000807F18D1024621684B6823F020034B60B5
:102ED00021684B6823F003034B6064212046FFF711
:102EE000B1F908B1202363650023E387012384F847
:102EF0005130636D1BB92046FFF780FF38BD204677
:102F0000FFF790FFFAE738B50546846BFDF700FC44
:102F10002B681B6813F4807F1BD1024621684B6825
:102F200023F020034B6064212046FFF757F918B1C6
:102F3000636D43F0200363652268536823F0030345
:102F400053600023E386E387012384F85130636DE7
:102F50001BB92046FFF753FF38BD2046FFF762FF3D
:102F6000FAE710B4036A046A24F001040462846975
:102F700024F0F00C4CEA021223F00A030B438261A6
:102F800003625DF8044B704710B4036A23F010032A
:102F900003628469036A24F4704C4CEA023223F021
:102FA000A00343EA0113826103625DF8044B70479A
:102FB000836823F070030B4343F00703836070477B
:102FC0000268D36843F00103D3600268936803F09A
:102FD0000703062B03D0136843F00103136000209E
:102FE00070477047704770477047704710B5044688
:102FF00003681A6912F0020F11D0DA6812F0020F9A
:103000000DD06FF002021A610123037703689B69F8
:1030100013F0030F70D0FFF7E6FF00232377236838
:103020001A6912F0040F12D0DA6812F0040F0ED0F1
:103030006FF004021A610223237723689B6913F45B
:10304000407F5FD02046FFF7CEFF00232377236821
:103050001A6912F0080F12D0DA6812F0080F0ED0B9
:103060006FF008021A61042323772368DB6913F0E9
:10307000030F4ED02046FFF7B6FF002323772368C7
:103080001A6912F0100F12D0DA6812F0100F0ED079
:103090006FF010021A61082323772368DB6913F4A9
:1030A000407F3DD02046FFF79EFF00232377236813
:1030B0001A6912F0010F03D0DA6812F0010F36D14D
:1030C00023681A6912F0800F03D0DA6812F0800FBB
:1030D00034D123681A6912F0400F03D0DA6812F075
:1030E000400F32D123681A6912F0200F03D0DA683A
:1030F00012F0200F30D110BDFFF774FF2046FFF70C
:1031000073FF8AE72046FFF76DFF2046FFF76CFF4D
:103110009BE72046FFF766FF2046FFF765FFACE719
:103120002046FFF75FFF2046FFF75EFFBDE76FF029
:1031300001021A612046FFF754FFC1E76FF08002D9
:103140001A61204600F04FF9C3E76FF040021A61A0
:103150002046FFF74AFFC5E76FF020021A612046BC
:1031600000F040F9C7E700000368304A904212D0EF
:10317000B0F1804F0FD0A2F57C4290420BD002F507
:103180008062904207D002F58062904203D002F53F
:103190007842904203D123F070034A681343234AD4
:1031A00090422AD0B0F1804F27D0A2F57C429042C5
:1031B00023D002F5806290421FD002F580629042D7
:1031C0001BD002F57842904217D002F5705290421F
:1031D00013D002F5806290420FD002F580629042D7
:1031E0000BD0A2F59832904207D002F5806290424F
:1031F00003D002F58062904203D123F44073CA6881
:10320000134323F080034A69134303608B68C3624E
:103210000B688362054B984203D003F580639842A4
:1032200001D10B6903630123436170470000014032
:10323000B0B110B5044690F83D3063B1022384F874
:103240003D30214651F8040BFFF78EFF012384F82F
:103250003D30002010BD80F83C3004F0E7FBEDE786
:103260000120704710B4846824F47F4C42EA0322A2
:103270000A4342EA0C0282605DF8044B704790F802
:103280003C30012B66D010B50446012380F83C3059
:10329000022380F83D300268936823F47F4323F0D3
:1032A000770393600B68602B40D022D8402B47D027
:1032B0000BD9502B0ED1CA6849680068FFF751FE40
:1032C00050212068FFF774FE04E0202B0CD008D9B1
:1032D000302B09D0012384F83D30002084F83C00D5
:1032E00010BD0BB1102BF5D119462068FFF760FE19
:1032F000F0E7702B0ED0B3F5005FEBD1CB684A68D6
:1033000089680068FFF7AEFF2268936843F4804342
:103310009360DFE7CB684A6889680068FFF7A2FF1F
:103320002268936843F077039360D3E7CA684968DB
:103330000068FFF729FE60212068FFF739FEC9E722
:10334000CA6849680068FFF70CFE40212068FFF753
:103350002FFEBFE70220704790F83C20012A3DD0A5
:1033600010B40346012280F83C20022280F83D2060
:1033700002685068946820F0700C086840EA0C00FD
:1033800050601A68164882421AD0B2F1804F17D0A6
:10339000A0F57C40824213D000F5806082420FD0BD
:1033A00000F5806082420BD000F57840824207D061
:1033B00000F57050824203D0A0F59430824204D1CF
:1033C00024F08004496821439160012283F83D2064
:1033D000002083F83C005DF8044B704702207047E2
:1033E000000001407047704710B504460268136939
:1033F00023F44053C1680B431361836802691A4385
:1034000043691A43C3691A430168CB6823F416431E
:1034100023F00C031343CB600268536923F4407319
:1034200081690B435361C369B3F5004F35D003681D
:10343000604A934200F0918002F58062934200F06E
:103440008C80FEF797FC0021031849411B1841F1BD
:103450000001C90041EA5371DB00181863684FEAA4
:1034600083024FEA937341F10001FCF789FF524A4E
:10347000A2FB00314909642303FB11031B01323312
:10348000A2FB03235B0903F0F00202EB011203F03D
:103490000F03216813448B608AE00368454A934216
:1034A0002FD002F5806293422BD0FEF763FC0023FD
:1034B000021843EB0301121841F10001C90041EA6F
:1034C0005271D200101841F10001626892185B41FC
:1034D000FCF756FF384AA2FB00314909642303FB7D
:1034E0001103DB003233A2FB03235B095A0002F411
:1034F000F87202EB011203F00703216813448B609A
:1035000056E0FEF747FC0023021843EB03011218B4
:1035100041F10001C90041EA5271D200101841F195
:103520000001626892185B41FCF72AFF224AA2FB65
:1035300000314909642303FB1103DB003233A2FB92
:1035400003235B095A0002F4F87202EB011203F044
:103550000703216813448B602AE0FEF71BFC00215F
:10356000031849411B1841F10001C90041EA537198
:10357000DB00181863684FEA83024FEA937341F146
:103580000001FCF7FDFE0C4AA2FB0031490964234F
:1035900003FB11031B013233A2FB03235B0903F07E
:1035A000F00202EB011203F00F03216813448B6059
:1035B00010BD00BF001001401F85EB512DE9F843FD
:1035C00005460F4616469946DDF820802B681C6894
:1035D00037EA04040CBF01240024B4421FD1B8F11F
:1035E000FF3FF3D0B8F1000F05D0FDF791F8A0EB45
:1035F00009004045EAD92A68D36823F4D073D36020
:103600002A68536923F001035361202385F8393078
:1036100085F83A30002385F83830032000E0002098
:10362000BDE8F88358B310B5044690F839300BB3B1
:10363000242384F839302268D36823F40053D360FC
:103640002046FFF7D1FE2268136923F490431361EB
:103650002268536923F02A0353612268D36843F434
:103660000053D3600020E063202384F8393084F8CD
:103670003A3010BD80F8383004F02AFAD8E701203B
:1036800070472DE9F04383B01E4690F83930DBB225
:10369000202B56D104460D469046002955D0002ACD
:1036A00055D090F83830012B53D0012380F83830B2
:1036B0004FF00009C0F83C90212380F83930FDF725
:1036C00027F80746A4F82480A4F8268084F83890C8
:1036D00010E000963B46002280212046FFF76EFF57
:1036E000002838D12B882268C3F30803536023696C
:1036F000CBB90235E38C9BB2BBB1E28C92B2013AFA
:1037000092B2E284A368B3F5805FE2D000963B46B4
:10371000002280212046FFF751FFF0B915F8012B58
:1037200023685A60E6E70135E4E700963B4600224D
:1037300040212046FFF742FF88B9202384F8393022
:1037400000E0022003B0BDE8F0830120FAE7012089
:10375000F8E70220F6E70320F4E70320F2E703206E
:10376000F0E788B110B5044604F030FAE368226847
:1037700043F080031360236962681343A1682268E1
:103780000B435360002010BD012070470368C268DE
:103790001A6000207047000000B585B04FF47A73BE
:1037A000029392B20192009102230246A2210348A1
:1037B000FDF798FF05B05DF804FB00BF941D0020E5
:1037C00000B585B04FF47A73029392B201920091E2
:1037D00002230246A2210348FEF736F805B05DF841
:1037E00004FB00BF941D002010B584B04FF47A7420
:1037F00002949BB20193009202230A4601460348B9
:10380000FEF722F8002004B010BD00BF941D002078
:1038100070B584B04FF4897004F0A6FB04464FF4F1
:10382000897201460020FFF7CBFFB4F90030B3F1F5
:10383000FF3F04D1B4F90230B3F1FF3F4DD03E4D0C
:103840002E684FF48972214606F13C0004F0BCFD5D
:103850004FF4807322464FF40051306800F05EFB55
:103860002868102304F5807242F20101006800F01C
:1038700055FB14B1204604F07FFB012301AA4FF44D
:103880003071A220FFF7B0FF2C4C052322464FF4E5
:103890002071A220FFF7A8FF2378FF2B02D16378C5
:1038A000FF2B31D0254A002313759DF80430537542
:1038B0004FF42071A220FFF797FF012301AA4FF4D4
:1038C0004071A220FFF790FF9DF80430012B2ED00D
:1038D0001A4B00229A7504B070BD204602F086FE95
:1038E000154D28684FF4807322464FF4005100684C
:1038F00000F014FB2868102304F5807242F20101E5
:10390000006800F00BFBB4E7A378FF2BCAD1E37883
:10391000FF2BC7D12379FF2BC4D1094A92E80300BA
:103920002060A1800122227505226275C5E7034B44
:1039300001229A75CFE700BFB41F0020800000204D
:1039400068940008002303614361C360C0F8083431
:10395000704770B504460E460023C0F8003400F0EE
:103960000BFA012812D0A56885B1B5F5806F01DD8D
:103970004FF480653146284600F048FAD4F8003408
:103980002B44C4F80034A3685B1BA360002070BD07
:1039900070B504460E460023C0F8003400F0F6F976
:1039A000012812D0A56885B1B5F5806F01DD4FF40F
:1039B00080653146284600F051FAD4F800342B4493
:1039C000C4F80034A3685B1BA360002070BD002313
:1039D0001A4603E010F803C0624401338B42F9DB5E
:1039E000D0B2704710B41A4B0022A3F80624A3F8F3
:1039F0000824A3F80A241A804FF4806058801A71B2
:103A0000A3F81028A3F80E2483F80C2411490C689D
:103A1000E16841F02001E160A3F81A2CA3F81C2C06
:103A2000A3F81E2CA3F81428A3F8160883F8182866
:103A300003F580518A84A3F8222C83F8202C064BAE
:103A40001A68D36843F02003D3605DF8044B7047D5
:103A5000180A0020701F0020E81D0020454B1B683D
:103A60001968DA6802F0200211F0200F22D00AB3A0
:103A70005968C9B26FF020021A603F4B1B79BBB97D
:103A80003D4B5A8882B1184601230371038800EB2D
:103A9000030C8CF8051001339BB20380C3F30903B8
:103AA0000380013A428005E0334B02221A7101E0A3
:103AB000012B1FD02F4B1B681968DA6802F08002B7
:103AC00011F0800F05D022B12B4A92F80C24012A64
:103AD00026D01968DA6802F0400211F0400F08D0D1
:103AE0003AB16FF040021A60234B93F80C34022B6A
:103AF00033D07047204B5A8872B118461B8800EBB0
:103B0000030C8CF8051001339BB20380C3F3090347
:103B10000380013A4280CDE7174B02221A71C9E7B0
:103B2000154AB2F80E14481CA2F80E04114491F87C
:103B300010145960B2F80E14B2F810289142C8D18E
:103B40000D4A022182F80C14DA6822F08002DA6051
:103B5000DA6842F04002DA60BBE7074B002283F8E4
:103B60000C24A3F81028034B1A68D36823F04003F1
:103B7000D360BEE7701F0020180A00204D4B1B6861
:103B80001968DA6802F0200211F0200F2AD04AB337
:103B90005968C9B26FF020021A60474B93F8183881
:103BA000F3B9454BB3F81628AAB11846012380F89B
:103BB0001838B0F8143800EB030C8CF819180133DE
:103BC0009BB2A0F81438C3F30903A0F81438013AE3
:103BD000A0F8162806E0384B022283F8182801E0E6
:103BE000012B1FD0334B1B681968DA6802F0800282
:103BF00011F0800F05D022B12F4A92F8202C012A13
:103C00002CD01968DA6802F0400211F0400F08D099
:103C10003AB16FF040021A60274B93F8203C022B18
:103C20003AD07047244BB3F8162892B11846B3F82F
:103C3000143800EB030C8CF8191801339BB2A0F870
:103C40001438C3F30903A0F81438013AA0F8162871
:103C5000C8E7194B022283F81828C3E7164AB2F8BE
:103C6000221C481CA2F8220C114491F8241C596013
:103C7000B2F8221C02F58052928C9142C1D10E4AB8
:103C8000022182F8201CDA6822F08002DA60DA6809
:103C900042F04002DA60B4E7074B002283F8202CA0
:103CA00003F580539A84034B1A68D36823F04003CA
:103CB000D360B6E7E81D0020180A0020144B1B79DA
:103CC000012B02D0022B16D07047114A002313712A
:103CD0001388A2F80834B2F80624934204D99B1A38
:103CE0000B4AA2F80A3470479B1A03F58063084A0E
:103CF000A2F80A347047064B00221A71B3F8082460
:103D00001A80B3F80A24C2F580625A80DCE700BF4B
:103D1000180A0020174B93F81838012B02D0022BF9
:103D200018D07047134A002382F81838B2F81438B4
:103D3000A2F81C3CB2F81A2C934204D99B1A0D4AE3
:103D4000A2F81E3C70479B1A03F58063094AA2F84B
:103D50001E3C7047074B002283F81828B3F81C2C30
:103D6000A3F81428B3F81E2CC2F58062A3F8162815
:103D7000D7E700BF180A0020034B93F80C340BB9A7
:103D80000020704701207047180A0020034B93F869
:103D9000203C0BB90020704701207047180A002012
:103DA000064B012283F80C240022A3F80E24044BB6
:103DB0001A68D36843F08003D3607047180A002064
:103DC000701F0020064B012283F8202C0022A3F84C
:103DD000222C044B1A68D36843F08003D3607047E9
:103DE000180A0020E81D002038B50C46064D0A468A
:103DF000014605F5826004F0E7FAB5F810381C4476
:103E0000A5F8104838BD00BF180A0020094A92F8EA
:103E10000C240AB10120704710B50346084600245F
:103E2000044AA2F810481946FFF7DEFFFFF7B8FF73
:103E3000204610BD180A002038B50C46064D0A462B
:103E4000014605F6244004F0BFFA05F58055AB8C19
:103E50001C44AC8438BD00BF180A0020094A92F8FF
:103E6000202C0AB10120704710B5034608460024F3
:103E7000054A94841946FFF7DFFFFFF7A3FF2046AA
:103E800010BD00BF180A0020181A00200F4BB3F80D
:103E90000A34CBB10D4BB3F806241A4452790270A0
:103EA000B3F80624013292B2A3F80624C2F3090241
:103EB000A3F80624B3F80A24013AA3F80A245A887E
:103EC00001325A800020704701207047180A0020F4
:103ED000114BB3F81E3CE3B10F4BB3F81A2C1A4444
:103EE00092F819280270B3F81A2C013292B2A3F892
:103EF0001A2CC2F30902A3F81A2CB3F81E2C013AAB
:103F0000A3F81E2CB3F816280132A3F816280020B7
:103F100070470120704700BF180A002038B51546C9
:103F2000B1F5005F05D042F2010081420FD00020C0
:103F300038BDFF2B22D90AB90020F9E74FF480746D
:103F4000224629460F4804F03FFA2046F0E70F2B9F
:103F500016D90AB90020EBE70B4C1068516892683B
:103F6000EB680FC4094B1B682C686868A968EA688D
:103F70009C61D86119625A621020D9E70020D7E706
:103F80000020D5E7401A0020401B0020B41F00206D
:103F900010B5642003F076F90E4B02229A619A6103
:103FA0004FF400319961996199619A619A614FF476
:103FB000F06003F067F9084C4FF48013A3614FF4ED
:103FC0007A73102205490648FEF702FC1023A3610C
:103FD00010BD00BF0004024000000240501B002042
:103FE000681E002070B5194C1025A5614FF00066C1
:103FF000A661A6614FF40063A3614FF4F06003F083
:1040000041F9A6614FF4F06003F03CF9104B022235
:104010009A619A614FF400319961996199619A614D
:104020009A614FF4F06003F02DF94FF48013A3610F
:104030004FF47A732A4607490748FEF7C9FBA56182
:10404000FFF7A6FFFFF7A4FF70BD00BF000002400E
:1040500000040240501B0020681E002010B50E4BCB
:1040600002229A619A614FF40031996199619961D4
:104070009A619A61052003F005F9084C4FF480130A
:10408000A3614FF47A73102205490648FEF7A0FB9E
:104090001023A361082010BD00040240000002406C
:1040A000501B0020681E00202DE9F0410D461446EB
:1040B0001E463A4B02229A619A614FF4003199618F
:1040C000996199619A619A614FF4F06003F0DAF8AE
:1040D000DFF8D4804FF48013C8F818304FF47A73A7
:1040E000B2B221462E48FEF773FB07461023C8F8EC
:1040F00018304DB1102D41D1002349E06A1CA35C5A
:10410000615DA15463550235B542F7D3254DB4F92D
:104110000010284602F0F4FE2080B4F9021005F1E8
:10412000200002F0EDFE6080B4F9041005F14000BB
:1041300002F0E6FEA080B4F9061005F1600002F07E
:10414000DFFEE080B4F9081005F1800002F0D8FE2F
:104150002081B4F90A1005F1A00002F0D1FE6081BF
:10416000B4F90C1005F1C00002F0CAFEA081B4F948
:104170000E1005F1E00002F0C3FEE0815FB1012006
:10418000BDE8F0815A1CA15CE05CA054E15402330C
:10419000B342F7D3F2E70820F2E700BF0004024081
:1041A000681E0020401A00200000024000B585B0C3
:1041B0000023009301930293039303F1804303F5DB
:1041C000013302229A619A614FF400319961996139
:1041D00099619A619A61052003F054F81023044A0A
:1041E00069460448FEF768FD05B05DF804FB00BFB2
:1041F000501B0020681E002008B51E481E4B03609F
:104200004FF080634360402383600023C3604FF41A
:104210008062026143618361C3614FF400320262D4
:104220004362FCF77BFBF0B9144A124B93649A6328
:104230001348144B03604FF0C06343600023836056
:10424000C3604FF48062026143618361C3614FF4D4
:10425000403202624362FCF761FB38B9074A084BFF
:10426000D3649A6308BD03F08BF9DDE703F088F9A6
:10427000F4E700BFD03A022040640240681E0020EC
:10428000303B0220106402402DE9F04F8FB00390C4
:10429000030116330093934A9D18934C94F8103100
:1042A00094F8111101EB032109B2ADF8241094F830
:1042B000123194F813B10BEB032B0FFA8BFBADF813
:1042C00026B094F8143194F815A10AEB032A0FFADA
:1042D0008AFAADF828A094F8163194F8179109EBF2
:1042E00003290FFA89F9ADF82A9094F8183194F857
:1042F000198108EB03280FFA88F8ADF82C8094F8A0
:104300001A3194F81B7107EB03273FB2ADF82E70FA
:1043100094F81C3194F81D6106EB032636B2ADF813
:10432000306094F81E2194F81F3103EB02231BB276
:104330000193ADF83230204602F0E2FD0290ADF874
:104340001000594604F1200002F0DAFD8346ADF872
:104350001200514604F1400002F0D2FD8246ADF851
:104360001400494604F1600002F0CAFD8146ADF830
:104370001600414604F1800002F0C2FD8046ADF80F
:104380001800394604F1A00002F0BAFD0746ADF866
:104390001A00314604F1C00002F0B2FD0646ADF845
:1043A0001C00019904F1E00002F0AAFDADF81E0026
:1043B0004E4B1B68B3F91810029C621802F50042BC
:1043C000B2F5803F04D289B211FA84F2ADF8102020
:1043D000B3F91A100BEB010202F50042B2F5803F6F
:1043E00004D289B211FA8BFBADF812B0B3F91C10EC
:1043F0000AEB010202F50042B2F5803F04D289B215
:1044000011FA8AFAADF814A0B3F91E1009EB0102F3
:1044100002F50042B2F5803F04D289B211FA89F95F
:10442000ADF81690B3F9201008EB010202F5004236
:10443000B2F5803F04D289B211FA88F8ADF818803D
:10444000B3F922107A1802F50042B2F5803F04D287
:1044500089B211FA87F7ADF81A70B3F924107218FF
:1044600002F50042B2F5803F04D289B211FA86F615
:10447000ADF81C60B3F92620831803F50043B3F5AB
:10448000803F04D292B212FA80F0ADF81E00BDF95E
:104490001030144A00995352BDF912306B80BDF9A7
:1044A0001430AB80BDF91630EB80BDF918302B818C
:1044B000BDF91A306B81BDF91C30AB81BDF91E30DE
:1044C000EB810B4C10222946208800F059FD094B46
:1044D00018802080039B122B00D928820FB0BDE8E2
:1044E000F08F00BF001C0020401A0020B41F0020E5
:1044F000901D0020921D002010B444680A885000CE
:10450000C0EBD400B1F9023000FB03F3002B1FDB3A
:10451000DB12C2EB141202FB02F2002A1BDB1213A5
:10452000B1F9040000FB02F2002A17DB03EBA2330F
:104530004B6203EB830313F1800013D400120D4A86
:10454000934211DB0C4A934210DA5DF8044B70473A
:1045500003F2FF73DCE702F6FF72E0E702F57F5239
:104560003F32E3E7FF30E9E70448EEE742F2341078
:10457000EBE700BF815EF0FF8034210060F0FFFFB9
:104580002DE9F0410C464D6AEB17B5F5FA3543F1CC
:10459000FF3305FB03F2A5FB05E606EB4206B1F986
:1045A00010204FEAE27C0EFB0CFC02FB06CCAEFBBB
:1045B00002729444B1F90E104FEAE17801FB03F264
:1045C00005FB0822A1FB05184244520442EAD132FD
:1045D0004904C9194CEB020CB4F90C200CEBC20CC9
:1045E000B4F90A70FA170EFB02F207FB0622AEFBC3
:1045F00007E73A441646002AC0F2C4804FEA1E2E4E
:104600004EEA066EB4F90820D71702FB03F305FB48
:104610000733A2FB055213441B0343EA15532A0335
:104620001EEB020243EB262303F50043E688A2FBC0
:10463000062506FB03531D46002BC0F2A8806A1016
:10464000EB1753EA650500F0BF800668C6F58016D3
:104650007508F607761A65EB0C0516EB060C45EBAC
:1046600005011CEB060C45EB0101880140EA9C604A
:104670004FEA8C171CEB070C41EB0001890041EA63
:104680009C714FEA8C0C1CEB060C45EB0101890078
:1046900041EA9C714FEA8C00801945EB0101FBF760
:1046A0001FFE0346B4F916504FEAE57C2E4602463B
:1046B0000F4600296FDB520B42EAC7427F1307FB0C
:1046C00005F502FB0C55A6FB026C654402FB05F5E3
:1046D00006FB0755A2FB062635442F46002D60DB5E
:1046E000520E7E1642EAC712B4F914504FEAE57C26
:1046F00005FB01F70CFB0070A5FB03573844074688
:10470000002854DBE80C40EA47309B1846EB0102D6
:104710001B1842EBE7421046002A4DDB1B0A43EA16
:104720000063B4F91210CA17120142EA11720901AA
:104730005B1842EB2022D10FC91842F10002490850
:1047400041EAC27152104B1842EB02005B1842EB77
:104750000000440144EAD3645D015B1940EB0400AE
:104760005B1842EB00021146002A29DBDB0943EA11
:1047700041631846174A934229D9174A934224D9CC
:10478000154822E01EF1FF0E42F1000636E7013A1D
:1047900043F1010553E741F6FF77C21941F10007E4
:1047A00089E76FF07E46921945F1000798E70B4FB5
:1047B000ED1940F10007A5E7FF3342F10000ADE736
:1047C0007F3342F10001D1E70548BDE8F08104489C
:1047D000FBE700BFBFC62D00C0D8A700FFFF070042
:1047E000C0C62D004B6AA3F5963C8068B1F91E3017
:1047F0001B05B1F92020C3EB80330CFB123313F5FA
:10480000804340D4DA1391F922300CFB03F3002BE0
:104810003DDB98120B7F0CFB03F3002B3ADBDB1222
:1048200003F5004300FB03F3002B36DB9B1203F57B
:104830000013B1F91A0000FB03F313F500532FD452
:104840009B1302FB03F31A46002B2DDBD21302FB52
:1048500002F2002A2CDBD211097E01FB02F2002AAF
:1048600028DBA3EB221323EAE373B3F1C85FA8BFED
:104870004FF0C8531A46002B1EDB13131846B3F52E
:10488000C83F1CD8704703F5FF437F33BAE703F2F4
:10489000FF33BEE703F2FF73C1E703F2FF33C5E75F
:1048A00003F57F533F33CBE703F5FF427F32CDE77C
:1048B0007F32D0E70F32D4E703F6FF72DDE74FF423
:1048C000C830DFE74278037843EA02230B80C278DE
:1048D000837843EA02234B804279037943EA022337
:1048E0008B80C279837943EA0223CB80427A037AB0
:1048F00043EA02230B81C27A837A43EA02234B8183
:10490000427B037B43EA02238B81C27B837B43EAA6
:104910000223CB81427C037C43EA02230B82C27CCC
:10492000837C43EA02234B82427D037D43EA0223D8
:104930008B82C27D837D43EA0223CB82437E0B764A
:1049400070474278037843EA02234B8383780B77DE
:1049500090F903309BB21B011BB2027902F00F02E7
:104960001343CB8390F905309BB21B011BB2027934
:1049700043EA12130B8490F9063081F82230704715
:1049800090F800C043781B01827843EA0C3343EA75
:1049900012130B6090F803C003791B01427943EABC
:1049A0000C3343EA12134B608279C37943EA022342
:1049B0008B607047F8B50D4614461E4600275760B9
:1049C0001760976019462846FFF796FD60603146EC
:1049D0002846FFF7D5FD206031462846FFF702FF45
:1049E000A0603846F8BD000010B584B00C46002128
:1049F00002918DF80C1060F07F008DF808004FF4E4
:104A00007A73009393B2224602A90348FDF7A0FCF3
:104A1000607804B010BD00BF181F002000B583B03F
:104A2000002300938DF8043002E0642002F02AFC99
:104A300002226946D020FFF7D7FF6028F5D103B0E6
:104A40005DF804FB00B583B0002300938DF80430BB
:104A500002226946D020FFF7C7FF03B05DF804FBD0
:104A600010B586B00C460021029103910491CDF857
:104A7000131060F07F008DF808004FF47A730093F4
:104A800093B2224602A90348FDF762FC607806B0A3
:104A900010BD00BF181F002030B58BB00D4600249C
:104AA0000294039404940594069407940894ADF832
:104AB00024408DF808004FF47A73009393B20A46AD
:104AC00002A90348FDF744FC68780BB030BD00BF75
:104AD000181F002000B589B00023009301930293B2
:104AE0000393049305930693ADF81C301E481F4AA8
:104AF000026043608360C3604FF48062026143617F
:104B00008361C36103624362FBF766FF28BB184AF7
:104B1000154BD3649A631748174B03600023436017
:104B200040228260C3604FF480620261436183610E
:104B3000C36103624362FBF74FFF88B90C480D4B1A
:104B400083649863F7238DF8003009230B4A694684
:104B5000FDF764FF09B05DF804FB02F011FDD6E734
:104B600002F00EFDEAE700BF103A0220406002406A
:104B7000181F0020B039022088600240641B00200A
:104B800010B584B0002402948DF80C4000F07F0032
:104B90008DF808000B788DF809304FF47A73009384
:104BA00093B20A4602A90348FDF7D2FB204604B09F
:104BB00010BD00BF181F0020D0ED017AF8EEE77A93
:104BC0009FED227A67EE877A214BC3ED047A90ED50
:104BD000027AB8EE477ADFED1F6A27EE267A83ED78
:104BE000057AD0ED006AF8EE666A9FED1B6A66EE04
:104BF000866AC3ED036A9FED196A66EE866AFCEE6B
:104C0000E66A16EE903A164AC2ED036A1B020133B9
:104C1000D360DFED146A27EE267ABCEEC77A17EE72
:104C2000103A82ED027A1B02023393609FED0E7AF6
:104C300077EE877A67EEA67AFCEEE77A17EE903A7F
:104C4000C2ED017A1B020333536070470AD7233C3D
:104C5000641B00200000803A17B7D13800401C4682
:104C6000203D02200050C3470000204270B596B09E
:104C7000002414948DF85440109411941294CDF89B
:104C80004B40089409940A940B940C940D940E9440
:104C9000ADF83C400094019402940394049405946C
:104CA0000694ADF81C401B2208A98820FFF7D8FE07
:104CB000EC46DDF82100DDF82510DDF82920DDF8CF
:104CC0002D30ACE80F00DDF83100DDF83510ACE830
:104CD0000300BDF83930ACF80030264D05F1300640
:104CE00031466846FFF7EEFD082208A9E120FFF7EC
:104CF000B7FEDDF821000090BDF825209DF8273093
:104D0000ADF804208DF8063031466846FFF719FEED
:104D100001238DF85030022214A9F220FFF730FF52
:104D20008DF85040022214A9F520FFF729FF252312
:104D30008DF85030022214A9F420FFF721FF0A2039
:104D4000FBF7ECFC092210A9F720FFF7A5FE05F1FF
:104D5000580421460DF14100FFF712FE6435334639
:104D60002A4621460720FFF725FE2846FFF724FFA5
:104D700016B070BD641B002010B582B000240094F2
:104D80008DF80440B6238DF8003002226946E020F9
:104D9000FFF7F6FE0520FBF7C1FCFFF73FFEFFF72C
:104DA00065FF204602B010BD08B50023174A1380E6
:104DB000174A1380174B1A68174B1A60174B1B784A
:104DC000012B0BD0022B1BD0032B0BD1144B5A6899
:104DD000114B5A60114B00221A7003E0104BDA6835
:104DE0000D4B5A6008220C49002000F079F9084B5D
:104DF0001880064B1880094A13780133137008BDD8
:104E0000074B9A68044B5A60ECE700BF901D0020E6
:104E1000921D0020B01F0020001C00200800002070
:104E2000203D022000B585B000230093019302933A
:104E3000CDF80B3025238DF8003002226946F4208E
:104E4000FFF79EFE05B05DF804FB000010B51446A8
:104E5000002A55D1002903DB864694460B460CE018
:104E600086462D230EF8013B49424FF0010CF5E731
:104E7000244AA2FB0323DB080134002BF8D11CB128
:104E800022460CEB020412E00122FAE71E4B83FBE0
:104E9000013CCB17C3EBAC039C4603EB8303A1EBB4
:104EA0004303DBB2013A30330EF802306146002A88
:104EB000ECDC204410BD144A82FB01E2C917C1EBAF
:104EC000A2010CF1FF3CBCF1000FF2DD0E4A82FBA7
:104ED000012ECA17C2EBAE0202EB8202A1EB420224
:104EE000D2B20CF1FF3E303200F80E20002BE2D19E
:104EF0000029E0D1A445DED0202200F80E20DAE718
:104F00009446E0E7CDCCCCCC6766666610B5964695
:104F1000BAB104460860012A15D0012000E001342E
:104F200022787AB19A42FAD122464FF0000C02F868
:104F300001CB00F1010C41F82020E64505DD60467B
:104F4000EDE7104610BD1046FCE76046FAE70000AA
:104F50000023934211D210B411F801CB8CEA102C2B
:104F6000064C34F81CC08CEA002080B201339BB29E
:104F70009342F1D35DF8044B70477047108B0008E3
:104F80000A7882EA1022554B33F8122082EA002078
:104F90001FFA80FCC0F307204A78504033F81020F5
:104FA00082EA0C2290B2C2F3072291F802C082EA90
:104FB0000C0233F8122082EA002290B2C2F30722D8
:104FC00091F803C082EA0C0233F8122082EA002230
:104FD00090B2C2F3072291F804C082EA0C0233F8BF
:104FE000122082EA002290B2C2F3072291F805C093
:104FF00082EA0C0233F8122082EA002290B2C2F355
:10500000072291F806C082EA0C0233F8122082EAE5
:10501000002290B2C2F3072291F807C082EA0C0284
:1050200033F8122082EA002290B2C2F3072291F8EC
:1050300008C082EA0C0233F8122082EA002290B201
:10504000C2F3072291F809C082EA0C0233F8122059
:1050500082EA002290B2C2F3072291F80AC082EAE3
:105060000C0233F8122082EA002290B2C2F3072227
:1050700091F80BC082EA0C0233F8122082EA002277
:1050800090B2C2F3072291F80CC082EA0C0233F806
:10509000122082EA002290B2C2F3072291F80DC0DA
:1050A00082EA0C0233F8122082EA002290B2C2F3A4
:1050B000072291F80EC082EA0C0233F8122082EA2D
:1050C00000221FFA82FCC2F30722C97B4A4033F850
:1050D000120080EA0C2080B2704700BF108B0008DD
:1050E0000A7882EA1022294B33F8122082EA002043
:1050F0001FFA80FCC0F307204A78504033F8102094
:1051000082EA0C2290B2C2F3072291F802C082EA2E
:105110000C0233F8122082EA002290B2C2F3072276
:1051200091F803C082EA0C0233F8122082EA0022CE
:1051300090B2C2F3072291F804C082EA0C0233F85D
:10514000122082EA002290B2C2F3072291F805C031
:1051500082EA0C0233F8122082EA002290B2C2F3F3
:10516000072291F806C082EA0C0233F8122082EA84
:1051700000221FFA82FCC2F30722C9794A4033F8A1
:10518000120080EA0C2080B2704700BF108B00082C
:105190000A7882EA10224A4B33F8122082EA002071
:1051A0001FFA80FCC0F307204A78504033F81020E3
:1051B00082EA0C2290B2C2F3072291F802C082EA7E
:1051C0000C0233F8122082EA002290B2C2F30722C6
:1051D00091F803C082EA0C0233F8122082EA00221E
:1051E00090B2C2F3072291F804C082EA0C0233F8AD
:1051F000122082EA002290B2C2F3072291F805C081
:1052000082EA0C0233F8122082EA002290B2C2F342
:10521000072291F806C082EA0C0233F8122082EAD3
:10522000002290B2C2F3072291F807C082EA0C0272
:1052300033F8122082EA002290B2C2F3072291F8DA
:1052400008C082EA0C0233F8122082EA002290B2EF
:10525000C2F3072291F809C082EA0C0233F8122047
:1052600082EA002290B2C2F3072291F80AC082EAD1
:105270000C0233F8122082EA002290B2C2F3072215
:1052800091F80BC082EA0C0233F8122082EA002265
:1052900090B2C2F3072291F80CC082EA0C0233F8F4
:1052A000122082EA00221FFA82FCC2F30722497B05
:1052B0004A4033F8120080EA0C2080B2704700BFE9
:1052C000108B000870B50546C06910B1012385F840
:1052D0005C3095F85C30012B11D06B6D8BBB0024DA
:1052E000A86804EB440300EBC3004669002E50D0CD
:1052F000A96AFAF78DFF00286ED00134F0E710227A
:10530000002102F0EBFFB5F860309842E5D0AC6DBB
:105310005B2304F8013BA96A204603F04DF82046C0
:10532000FAF780FF26182C23235400231A46032162
:10533000701CFFF78BFD5D2300F8013BAB6DC21ABB
:1053400040E010220021286A02F0C8FF0446B5F8A8
:105350005420296D0020FFF7FBFD8442BFD0AC6DC7
:105360005B2304F8013BA96A204603F025F8204698
:10537000FAF758FF26182C23235400231A46042139
:10538000701CFFF763FD5D2300F8013BAB6DC21A93
:1053900018E0AC6D5B2304F8013BA96A204603F0DA
:1053A0000BF82046FAF73EFF26182C23235400233F
:1053B0001A460521701CFFF749FD5D2300F8013BEB
:1053C000AB6DC21A2C686B68A96D0220A047084B10
:1053D0001B78012B08D070BD05F12800B0470246AC
:1053E000044B00211960EDE7642001F0F3F8F2E7C7
:1053F000B81F0020883E02202DE9F04180460E466D
:1054000017461D46642002F0AFFD044664220021C9
:1054100002F08EFFC4F8088027606560304602F015
:10542000A3FD05462061304602F09EFDA065A56201
:105430002046BDE8F0812DE9F04104460E461746AE
:1054400000250EE022696369591C6161715DD154C8
:105450006369226D2169521A9B1A626D93421DD2B3
:105460000135BD4280F0D380207B0728EAD0711936
:10547000735D3E2B18D82C2BC0F0B4802C3B122B24
:1054800000F2B080DFE803F033AEAEAEAEAEAEAE4B
:10549000AEAEAEAEAEAE5C7222AE89002046FFF775
:1054A00011FF00232373DBE77C2B40F09B80002857
:1054B000D6D00623237322696369591C61610021D8
:1054C000D154236962691344E361C9E7012323735B
:1054D0000023E364E36284F85C306361A361E36109
:1054E0002362636223656365A4F86030B8E700282F
:1054F000B6D022696369581C60610020D054237BB8
:10550000022B06D9062BABD12369626913442362AF
:10551000A6E75BB2002BA3D0022323732269E36CBE
:10552000581CE064606902440A3304EB83035A6048
:105530000122B4F86000FFF70BFDA4F860008FE7CC
:1055400000288DD00423237322696369581C60618D
:105550000020D054236962691344A3610122B4F886
:105560006000FFF7F5FCA4F8600079E700283FF43D
:1055700077AF0523237322696369581C606100209B
:10558000D05423696269134463620122B4F8600055
:10559000FFF7DEFCA4F8600062E700283FF460AF8C
:1055A000636A8BB10723237322696369591C6161A4
:1055B0000021D15423696269134423651022606A73
:1055C00002F08CFE60654BE722696369591C6161DA
:1055D0004FF0000802F803802046FFF773FE84F8BE
:1055E0000C803DE700283FF43BAF22696369581CFB
:1055F00060610878D054237B062B3FF431AF012241
:10560000B4F86000FFF7A4FCA4F8600028E7BDE848
:10561000F0810378CAB2934204D00130002BF8D154
:1056200000207047704738B50546046B5B2304F8CB
:10563000013B0168204602F0BFFE2046FAF7F2FD6A
:1056400023182C222254302159709A704D22DA707E
:105650003D221A71981D5D225A712B6BC01A38BDFC
:1056600038B50546046B5B2304F8013B016820460E
:1056700002F0A2FE2046FAF7D5FD231801335D2281
:105680002254286B181A38BD38B50546046B414BB7
:1056900000221A70404B5B6913F4005F5CD03E4BF4
:1056A0004FF000529A614FF44870FBF737F83A4BCD
:1056B0005B6913F4005F54D0374B4FF000529A618E
:1056C0004FF44870FBF72AF8334B5B6913F4005F23
:1056D0004CD0314B4FF000529A614FF44870FBF7B9
:1056E0001DF82D4B5B6913F4005F44D02A4B4FF03B
:1056F00000529A614FF44870FBF710F8264B5B6933
:1057000013F4005F3CD0244B4FF000529A614FF4E9
:105710004870FBF703F8204B5B6913F4005F34D04B
:105720001D4B4FF000529A614FF44870FAF7F6FFA4
:10573000184B01221A705B2304F8013B29682046AC
:1057400002F03AFE2046FAF76DFD231801335D2280
:105750002254286B181A38BD0F4B4FF400529A612F
:10576000A1E70D4B4FF400529A61A9E70A4B4FF4A1
:1057700000529A61B1E7084B4FF400529A61B9E7C1
:10578000054B4FF400529A61C1E7034B4FF40052AE
:105790009A61C9E7903E02200008024038B50546EC
:1057A000046B5B2304F8013B0168204602F004FE11
:1057B0002046FAF737FD231801335D222254286B67
:1057C000181A38BD38B50546046B5B2304F8013B55
:1057D0000168204602F0F0FD2046FAF723FD231869
:1057E0002C22225430225A70D81C5D229A70034B0E
:1057F00001221A702B6BC01A38BD00BFB81F0020E1
:1058000038B50546046B5B2304F8013B016820466C
:1058100002F0D2FD2046FAF705FD231801335D2280
:105820002254034A01211170286B181A38BD00BF99
:10583000A93E0220F8B50546046B436A33B34668B7
:105840003046FAF7EFFC012801D002271FE0377835
:10585000303FFFB2032F44D817F0010F0CD0264B76
:105860004FF480729A6117F002070AD0224B4FF46E
:1058700080529A6100270AE01F4B4FF080729A61B4
:10588000F1E71D4B4FF080529A6100E000271A4A61
:105890005369C3F30023526912F4805F23D00222BC
:1058A00043EA0206154B00221A605B2304F8013B11
:1058B0002968204602F080FD2046FAF7B3FC044434
:1058C0009FB933463A460E49204602F011FD204664
:1058D000FAF7A8FC231801335D222254286B181A0A
:1058E000F8BD0227D3E70022DAE73A460549204609
:1058F00002F0FEFCEBE700BF00000240883E022001
:10590000709400087894000870B505460026114B85
:105910001E60046B5B2304F8013B0168204602F023
:105920004BFD2046FAF77EFC04440B4B1B696FEAE3
:10593000931303F0030332460849204602F0D8FCD3
:105940002046FAF76FFC231801335D222254286B9E
:10595000181A70BD883E02200004024070940008AE
:1059600038B50546046B5B2304F8013B016820460B
:1059700002F022FD2046FAF755FC0444084B1B7840
:1059800000220849204602F0B3FC2046FAF74AFC00
:10599000231801335D222254286B181A38BD00BF2A
:1059A000960000207094000838B50546046B5B2310
:1059B00004F8013B0168204602F0FEFC2046FAF79D
:1059C00031FC04440C4B1B78012B0FD00B4B0C4AC1
:1059D0000C49204602F08CFC2046FAF723FC2318E1
:1059E00001335D222254286B181A38BD044A064937
:1059F000204602F07DFCEFE79400002080000020AC
:105A00007C940008889400088494000838B5054602
:105A10000B4A00210B4802F08BFC2C6B5B2304F833
:105A2000013B2968204602F0C7FC2046FAF7FAFB42
:105A3000231801335D222254286B181A38BD00BF89
:105A400080190200E41F0020F8B50646046B5B23B2
:105A500004F8013B0168204602F0AEFC2046FAF74C
:105A6000E1FB04EB000C2C27275430238CF8013089
:105A70000CF103048CF80270304B1A889B78ACF858
:105A800003208CF805302E4D0FCDCCF80300CCF858
:105A90000710CCF80B20CCF80F302046FAF7C2FBE9
:105AA00023185D1C2754274A11889278A3F8011007
:105AB000DA702846FAF7B6FB00231A46194628443E
:105AC000FFF7C4F92E2300F8013B00231A460121F9
:105AD000FFF7BCF9044604F8017B1B4B1A889B783E
